:020000040800F2
:10000000400700202902000821040008B503000869
:100010001D040008D1020008CB0B000800000000FE
:10002000000000000000000000000000650400085F
:10003000D502000800000000230400087D05000828
:10004000DD0B0008430200084302000843020008D9
:10005000430200084302000843020008430200086C
:10006000430200084302000843020008430200085C
:10007000430200084302000843020008430200084C
:10008000430200084302000843020008430200083C
:10009000430200084302000843020008430200082C
:1000A000430200084302000843020008430200081C
:1000B00043020008A10700084302000843020008A9
:1000C00043020008430200084302000843020008FC
:1000D00043020008E50A0008430200084302000842
:1000E00043020008430200084302000843020008DC
:1000F00043020008430200084302000843020008CC
:1001000043020008430200084302000843020008BB
:1001100043020008430200084302000843020008AB
:10012000430200084302000843020008430200089B
:10013000430200084302000843020008430200088B
:10014000430200084302000843020008430200087B
:10015000430200084302000843020008430200086B
:10016000430200084302000843020008430200085B
:10017000430200084302000843020008430200084B
:10018000430200084302000800F002F800F03CF8C7
:100190000AA090E8000C82448344AAF10107DA45E2
:1001A00001D100F031F8AFF2090EBAE80F0013F0F8
:1001B000010F18BFFB1A43F001031847580B00004A
:1001C000780B0000103A24BF78C878C1FAD85207DB
:1001D00024BF30C830C144BF04680C6070470000C1
:1001E0000023002400250026103A28BF78C1FBD840
:1001F000520728BF30C148BF0B6070471FB500F0E1
:1002000083FD1FBD10B510BD00F033F81146FFF798
:10021000F5FF00F05FFD00F051F803B4FFF7F2FFC7
:1002200003BC00F0F5FC000009488047094800477E
:10023000FEE7FEE7FEE7FEE7FEE7FEE7FEE7FEE796
:10024000FEE7FEE704480549054A064B70470000F3
:1002500081050008890100084001002040070020B6
:1002600040030020400300207047704770477047EC
:100270007047754600F028F8AE46050069465346BB
:1002800020F00700854618B020B5FFF7DBFFBDE87A
:1002900020404FF000064FF000074FF000084FF0ED
:1002A000000B21F00701AC46ACE8C009ACE8C0097E
:1002B000ACE8C009ACE8C0098D4670470446AFF30E
:1002C00000802046FFF7A9FF00487047E0000020AB
:1002D00000BFFEE77047F0B50A4600210023002466
:1002E00000BF3DE0012505FA01F3156805EA0304A6
:1002F0009C4234D105684F000326BE40B5430560DB
:1003000015794E00B5400668354305601579012D15
:1003100002D01579022D16D185684F000326BE4004
:10032000B543856055794E00B54086683543856094
:10033000456801268E40B5434560456896798E40F4
:10034000B6B235434560C5684F000326BE40B5438D
:10035000C560D5794E00B540C6683543C560491CB7
:100360001029BFD3F0BDF0B5002300244D07ED0EDA
:1003700002FA05F3CE1000F1200555F826504E077D
:10038000F70E0F26BE40B543CF1000F1200646F809
:100390002750CE1000F1200555F8265045EA0304F9
:1003A000CE1000F1200545F82640F0BD418370478E
:1003B0000183704700BFFEE71CB50121202000F03B
:1003C00031F84FF4E060009001208DF80400002027
:1003D0008DF8060003208DF8050001208DF8070038
:1003E00069460D48FFF777FF4FF4C0610A48FFF7F1
:1003F000DDFF4FF480710848FFF7DAFF642000F05A
:1004000027FC4FF4C0610448FFF7D2FF4FF480711E
:100410000148FFF7CBFF1CBD0014024000BFFEE700
:100420007047704729B1064A12680243044B1A60AC
:1004300004E0034A12688243014B1A6070470000CF
:100440003038024029B1064A12680243044B1A6050
:1004500004E0034A12688243014B1A6070470000AF
:1004600040380240704700000CB500200190009019
:100470003448006840F480303249086000BF314899
:10048000006800F4003000900198401C0190009832
:1004900018B90198B0F5A04FF1D12A48006800F4CE
:1004A000003010B10120009001E000200090009881
:1004B000012846D123484030006840F0805021494F
:1004C000403108602048006840F440401E49086000
:1004D0001C48083000681B4908310860084600685D
:1004E00040F4004008600846006840F4A0500860EE
:1004F0001648091F0860081F006840F08070091F37
:10050000086000BF0F48006800F000700028F9D0B4
:1005100040F205700E4908600A480830006820F073
:1005200003000849083108600846006840F00200EE
:10053000086000BF03480830006800F00C0008287D
:10054000F8D10CBD0038024000700040085440074C
:10055000003C0240042808D14FF0E021096941F035
:1005600004014FF0E022116107E04FF0E02109693A
:1005700021F004014FF0E022116170477047000044
:1005800010B51548006840F470001349086013481E
:10059000006840F001001149086000200F4908314F
:1005A00008600E4800680E4908400C4908600D4874
:1005B000091D0860081F006820F48020091F0860DA
:1005C000002006490C310860FFF74EFF4FF0006035
:1005D00001498039086010BD88ED00E00038024014
:1005E000FFFFF6FE10300024F0B50C461546002142
:1005F0000022068C4FF6FE773E400684018B028C6B
:100600004FF60C7631407E1C06EA03162E4331432A
:100610004FF6F576324044F00106324301830284FE
:10062000F0BDF0B50C461546002100220026078CCF
:100630004FF6EF7C07EA0C070784018B028C4FF61C
:10064000FF7707EA041640F6FF4739404FF6FF7779
:1006500007EA033739434FF6FF7707EA052739439F
:100660004FF65F773A4046F010073A430183028421
:10067000F0BDF0B50C461546002100220026078C7F
:100680004FF6FF6C07EA0C070784818B028C4FF64C
:10069000FF7707EA04264FF60C7739404FF6FF77CD
:1006A00007EA03172F4339434FF2FF573A4046F406
:1006B00080773A4381830284F0BDF0B50C4615463D
:1006C000002100220026078C4EF6FF7C07EA0C076B
:1006D0000784818B028C4FF6FF7707EA043640F6D9
:1006E000FF4739404FF6FF7707EA052739434FF6B2
:1006F000FF7707EA0337394345F6FF773A4046F478
:1007000080573A4381830284F0BD000030B589B040
:1007100005460C4601210846FFF794FE01210846D4
:10072000FFF780FE012205211C48FFF71CFE202058
:10073000079002208DF8200003208DF82100002072
:100740008DF822008DF8230007A91448FFF7C3FD98
:100750000020ADF81800ADF812000595ADF8104076
:1007600004A94FF0804000F0CBF80020ADF8040061
:10077000ADF806000120ADF808000020ADF80A0031
:10078000ADF80C0001A94FF0804000F053F80121B2
:10079000880700F023F809B030BD000000000240D7
:1007A00010B50121084800F034F8012807D10748A6
:1007B000006808B9012000E0002004490860012118
:1007C000014800F005F810BD00040040A882424234
:1007D000CA4302827047CA430282704721B102882D
:1007E00042F00102028004E002884FF6FE731A40D4
:1007F000028070470146486B70470146486A70475F
:1008000002460020138A0B400BB1012000E00020BB
:10081000704730B50246002000230024158A05EAFF
:100820000103958905EA010413B10CB1012000E030
:10083000002030BD70B505460C46208850B923898C
:10084000A28861882846FFF7CFFEE188284600F09D
:100850002AF825E0208804280AD12389A288618803
:100860002846FFF7DEFEE188284600F025F817E06D
:10087000208808280AD12389A28861882846FFF7A2
:10088000F8FEE188284600F024F809E02389A288D0
:1008900061882846FFF711FFE188284600F022F81A
:1008A00070BD41627047028B4FF6F3731A400283AA
:1008B000028B0A4302837047028B4FF2FF331A40C8
:1008C0000283028B4FF6FF7303EA01231A4302836C
:1008D0007047828B4FF6F3731A408283828B0A43F0
:1008E00082837047828B4FF2FF331A408283828B60
:1008F0004FF6FF7303EA01231A4382837047000017
:1009000000220288184B98420ED0184B98420BD008
:10091000B0F1804F08D0164B984205D0154B984245
:1009200002D0154B984204D14FF68F731A404B8872
:100930001A43124B984207D0114B984204D04FF6FD
:10094000FF431A400B891A4302804B68C3620B882D
:100950000385054B984202D0044B984201D18B7A13
:100960000386012383827047000001400004014098
:100970000004004000080040000C0040001000404F
:100980000014004070B500240025082605E000F0A2
:100990001DF80446AC4200D925463000A6F10101FD
:1009A000CEB2F4D1284670BD70B50024651E08266D
:1009B00005E000F00BF80446AC4200D225463000BA
:1009C000A6F10101CEB2F4D1284670BD10B500F0F9
:1009D00027F80BE04FF08040FFF70FFF10F5FA7F8C
:1009E00004D34FF08040FFF708FF10BD02214807F5
:1009F000FFF706FF0028EDD04FF08040FFF7FAFE2A
:100A0000F3E7000010B507214FF0FF30FFF77EFE3F
:100A1000FFF7CAFF0149086010BD00000C0000206C
:100A20001CB52020009001208DF8040003208DF8D3
:100A3000050000208DF8060002208DF807006946A9
:100A40001248FFF748FC20211048FFF7AFFC0520B3
:100A500000F0FEF803214FF08040FFF7BCFE0021BC
:100A60004FF08040FFF71DFF2020009002208DF8FE
:100A7000040003208DF8050000208DF806008DF895
:100A8000070069460148FFF726FC1CBD0000024034
:100A900010B50024FFF776FF0F490860084600688C
:100AA0000E490968884207D30B4800680B4909685A
:100AB000401A0B49086006E00848006806490968C2
:100AC000401A0749086006480068642801D30124D9
:100AD00000E00024204610BD100000200C00002083
:100AE0001400002010B540F225511D4800F03EF8DA
:100AF00010B31B4800F064F8C4B21A48008800F430
:100B00000040C8B91748008800F4804060B10A2C42
:100B100003D000201349088020E01248008840F4E8
:100B200000401049088019E00D2C06D10D480088BE
:100B300040F480400B49088010E00A480088C0F368
:100B40000D0009490C5407480088401C05490880DD
:100B500008460088C72801DD0020088010BD00007D
:100B600000100140080000201800002070B5024667
:100B7000002400230025002040F66A16B14200D16F
:100B800000BFC1F3421501F01F03012606FA03F36B
:100B9000012D02D19689334006E0022D02D1168A3A
:100BA000334001E0968A33400C12012606FA04F421
:100BB0001688344013B10CB1012000E0002070BD54
:100BC00001468888C0F30800704700BFFEE70000B8
:100BD0000020014908607047082C004010B57F20B4
:100BE00000F00EF8FFF7F4FF0448006808B9012090
:100BF00000E000200149086010BD0000A8824242C8
:100C000000F07F01014A116070470000002C004095
:100C100000BF704710B504466FF00400FFF79AFC60
:100C2000E11704EB5171C1F3C701074A1170104677
:100C3000007800EB4001C1EBC0104FF6FF7101EAF4
:100C4000C0000249088010BD000000200200002002
:100C500070B504464FF4077094FBF0F0C6B24FF441
:100C6000077094FBF0F100FB114085B205E04FF4F2
:100C7000077000F009F8701EC6B2002EF7D115B14A
:100C8000284600F001F870BD0146114A12884A4317
:100C90004FF0E0235A6100229A611A46126942F02D
:100CA00001021A6100BF4FF0E022106900F001025A
:100CB0001AB100F48032002AF5D04FF0E022126918
:100CC00022F001024FF0E0231A6100229A6170477E
:100CD00002000020A820FFF79DFFFFF76DFB6420B6
:100CE000FFF7B6FFFFF78EFE0AE0FFF7D1FE20B157
:100CF0004FF4C0610348FFF759FB0A20FFF7A8FF34
:100D0000F3E70000001402404FF04070E1EE100ADB
:100D100070470000340D000800000020180000009B
:100D2000C40100084C0D000818000020280700002E
:100D3000E0010008000000000000000000000000CA
:0C0D4000000000000000000000000000A7
:040000050800018965
:00000001FF
