:020000040800F2
:10000000603700201D0A0008DD030008DF03000838
:10001000E3030008E7030008EB030008000000000A
:10002000000000000000000000000000EF030008D6
:10003000F103000800000000F3030008F5030008C6
:10004000370A0008370A0008370A0008370A00088C
:10005000370A0008370A0008370A0008370A00087C
:10006000370A0008370A0008370A0008370A00086C
:10007000370A0008370A0008370A0008370A00085C
:10008000370A0008370A0008370A0008370A00084C
:10009000370A0008370A0008370A0008370A00083C
:1000A000370A0008370A0008370A0008370A00082C
:1000B000370A0008A5070008370A0008370A0008B1
:1000C000370A0008370A0008370A0008370A00080C
:1000D000370A000893090008370A0008370A0008A1
:1000E000370A0008370A0008370A0008370A0008EC
:1000F000370A0008370A0008370A0008370A0008DC
:10010000370A0008370A0008370A0008370A0008CB
:10011000370A0008370A0008370A0008370A0008BB
:10012000370A0008370A0008370A0008370A0008AB
:10013000370A0008370A0008370A0008370A00089B
:10014000370A0008370A0008370A0008370A00088B
:10015000370A0008370A0008370A0008370A00087B
:10016000370A0008370A0008370A0008370A00086B
:10017000370A0008370A0008370A0008370A00085B
:10018000370A0008370A000800F002F800F049F8C2
:100190000AA090E8000C82448344AAF10107DA45E2
:1001A00001D100F03EF8AFF2090EBAE80F0013F0EB
:1001B000010F18BFFB1A43F001031847A0D000003D
:1001C000C0D00000103A24BF78C878C1FAD85207CE
:1001D00024BF30C830C144BF04680C6070470000C1
:1001E0000023002400250026103A28BF78C1FBD840
:1001F000520728BF30C148BF0B607047662903F023
:10020000D387002070471FB503F0C9FF03F0E2F960
:1002100004000020002103F035FFE0601FBD10B591
:1002200010BD03F0EFFA1146FFF7EDFF00F008F8FC
:1002300003F00DFB03B4FFF7F2FF03BC00F04AFB31
:100240002DED028B86B000264FF4A06000F006FC76
:10025000A82000F0BDFA4FF4E13000F048FB00F0B8
:10026000D3F900F0F1F901230022990201A802F06C
:10027000F9FD9DE0002000F005FA0546012D7DD135
:1002800000245AE000EE104AB8EE400ADFED490AB9
:1002900020EE200ADFED480A80EE201AB0EE418AF7
:1002A000B0EE480A02F0AAF9DFED448AF2EE040A41
:1002B00040EE808A00EE104AB8EE400ADFED3D0ABB
:1002C00020EE200AF1EE000A20EE200ADFED3A0AC5
:1002D00080EE201AB0EE418AB0EE480A02F08EF9A4
:1002E000F3EE0E0A40EE808A00EE104AB8EE400AA5
:1002F000DFED300A20EE200AF2EE000A20EE200A9E
:10030000DFED2D0A80EE201AB0EE418AB0EE480AE9
:1003100002F008F9DFED2A0A40EE808A294901EB54
:10032000C400C0ED008A9FED280A6000401C01EB6C
:10033000800080ED000A601C84B2B4F5806FA1DB00
:10034000204901A802F070FD4FF480621F491D484A
:1003500002F0C0F9002414E01C4800EB840090ED8A
:10036000000A10EE101A084603F0A8FE41EC180B24
:1003700053EC182B16A002F0C9FE00E005E0601C4B
:1003800084B2B4F5806FE7DB02E00A2000F082FA65
:10039000701CC6B20A2096FBF0F100FB116038B960
:1003A0000D48006808B9012000E000200A490860F3
:1003B00060E70000DB0FC940000080440000C84235
:1003C00000004842380000200000000038200020D3
:1003D00025660D0A00000000A4824242704700BF5B
:1003E000FEE700BFFEE700BFFEE700BFFEE7704785
:1003F00070477047704700000CB5002001900090D6
:100400007648006840F480307449086000BF734843
:10041000006800F4003000900198401C01900098A2
:1004200018B90198B0F5A04FF1D16C48006800F4FC
:10043000003010B10120009001E0002000900098F1
:10044000012846D165484030006840F0805063493B
:10045000403108606248006840F4404060490860EC
:100460005E48083000685D49083108600846006849
:1004700040F4004008600846006840F4A05008605E
:100480005848091F0860081F006840F08070091F65
:10049000086000BF5148006800F000700028F9D0E3
:1004A00040F20570504908604C480830006820F060
:1004B00003004A49083108600846006840F002001D
:1004C000086000BF45480830006800F00C000828AC
:1004D000F8D10CBD10B54548006840F470004349A0
:1004E00008603E48006840F001003C490860002078
:1004F0003A4908310860394800683D4908403749A1
:1005000008603C48091D0860081F006820F480202E
:10051000091F0860002031490C310860FFF76CFFAB
:100520004FF0006031498039086010BD70B500207F
:100530000022022300240221284D08352D6805F0F1
:100540000C0020B1042806D0082834D107E02A4D39
:100550002A4E356033E02A4D284E35602FE01F4D7E
:100560002D1D2D68C5F380541C4D2D1D2D6805F0E3
:100570003F0154B1224DB5FBF1F5184E361D3668DA
:10058000C6F3881605FB06F209E01B4DB5FBF1F535
:10059000124E361D3668C6F3881605FB06F20F4D5F
:1005A0002D1D2D68C5F301456D1C6B00B2FBF3F5E5
:1005B000124E356003E0104D104E356000BF00BF95
:1005C000064D08352D68C5F303150E4E705D0B4DB5
:1005D0002D68C540094E356070BD000000380240EE
:1005E0000070004008544007003C024088ED00E0E5
:1005F000FFFFF6FE103000240024F4000400002069
:1006000000127A00080000201CB50121202000F013
:10061000B9FD4FF4C060009001208DF80400002067
:100620008DF8060003208DF8050001208DF80700E5
:100630006946044800F008FB4FF4C061014800F02F
:100640007FFB1CBD001402401CB50121112000F0ED
:1006500099FD1C20009000208DF8040003208DF8E7
:10066000050001208DF807006946354800F0ECFAD6
:100670000120009002208DF807006946314800F003
:10068000E3FA1CBD10B5044614B101202E490870D0
:100690002D480078002837D01021294800F036FB7B
:1006A00078B10821264800F031FB50B104212448DC
:1006B00000F02CFB28B10121224800F027FB012883
:1006C00022D10A2000F0E6F800201F49087010210E
:1006D0001B4800F01BFB08B9012010BD0821184879
:1006E00000F014FB08B90220F7E70421144800F0D9
:1006F0000DFB08B90320F0E70121124800F006FBCA
:1007000001281BD10420E8E710210D4800F0FEFA73
:10071000012813D108210A4800F0F8FA01280DD168
:100720000421074800F0F2FA012807D10121054809
:1007300000F0ECFA10B90120034908700020CCE762
:100740000010024000000240180000207FB505465E
:100750000C460121022000F05EFD0295ADF8044038
:100760000020ADF80600ADF80C0001A9164801F014
:1007700034F901221146144801F0D0FD012112483C
:1007800001F0B4F91D208DF8000001208DF8010062
:1007900003208DF8020001208DF80300684600F068
:1007A00062F97FBD10B50121074801F0CEFD012897
:1007B00004D106480078401C044908700121024811
:1007C00001F0D4FD10BD0000000400400000002036
:1007D00010B504466FF0040000F092F9E11704EB45
:1007E0005171C1F3C701394A11701046007800EB0E
:1007F0004001C1EBC0104FF6FF7101EAC00034495F
:10080000088010BD0146314A12784A434FF0E02378
:100810005A6100229A611A46126942F001021A6175
:1008200000BF4FF0E022106900F001021AB100F49D
:100830008032002AF5D04FF0E022126922F0010246
:100840004FF0E0231A6100229A6170470146204A66
:1008500012884A434FF0E0235A6100229A611A46F7
:10086000126942F001021A6100BF4FF0E0221069E4
:1008700000F001021AB100F48032002AF5D04FF0E6
:10088000E022126922F001024FF0E0231A610022F7
:100890009A61704770B504464FF4077094FBF0F00E
:1008A000C6B24FF4077094FBF0F100FB114085B223
:1008B00005E04FF40770FFF7C9FF701EC6B2002EA7
:1008C000F7D115B12846FFF7C1FF70BD1A0000200F
:1008D0001C00002000BF704700BF4C4A128802F085
:1008E0004002002AF9D0C2B2484B9A80704710B536
:1008F00088B004460121084600F044FC0121102084
:1009000000F09AFC07220921414800F028FA07224A
:100910000A213F4800F023FA4FF4C06006900220FD
:100920008DF81C008DF81D0000208DF81E000120A0
:100930008DF81F0006A9364800F086F902940020C1
:10094000ADF80C00ADF80E00ADF81000ADF81400D5
:100950000C20ADF8120002A92C4800F0CEFD0121B8
:100960002A4800F052FE012240F22551274800F0AB
:1009700002FF25208DF8040003208DF805008DF876
:10098000060001208DF8070001A800F06CF808B0FF
:1009900010BD10B540F225511C4800F027FF10B3E0
:1009A0001A4800F061FEC4B21A48008800F4004002
:1009B000C8B91848008800F4804060B10A2C03D000
:1009C00000201449088020E01248008840F40040CC
:1009D0001049088019E00D2C06D10E48008840F41B
:1009E00080400C49088010E00A480088C0F30D00E0
:1009F00009490C5407480088401C064908800846ED
:100A00000088C72801DD0020088010BD00100140CB
:100A100000000240240000203830002009488047B0
:100A200009480047FEE7FEE7FEE7FEE7FEE7FEE7D0
:100A3000FEE7FEE7FEE7FEE704480549054A064BE8
:100A400070470000D50400088901000860310020CB
:100A500060370020603300206033002032490143BA
:100A6000324A1160704770B5002100230F22C4780C
:100A70001CB32E4C246804F4E064C4F5E064C4F3B1
:100A80000721C1F10404E3B20A4144789C40E1B279
:100A90008478144021430C07210E254C05786155BC
:100AA000047804F01F050124AC4005786D11AD00F9
:100AB00005F1E025C5F8004109E0047804F01F05C0
:100AC0000124AC401B4D0678761145F8264070BDD8
:100AD000194A0A400243154B1B1F1A60704739B16F
:100AE000124A121D12680243104B1B1D1A6006E0C9
:100AF0000E4A121D126882430C4B1B1D1A60704770
:100B0000042808D14FF0E021096941F004014FF0B9
:100B1000E022116107E04FF0E021096921F00401B2
:100B20004FF0E022116170470000FA050CED00E083
:100B300000E400E080E100E080FFFF1F10B5044604
:100B40009848844208D10121084600F086FB002124
:100B5000012000F082FB76E09348844208D1012115
:100B6000022000F07AFB0021022000F076FB6AE010
:100B70008E48844208D10121042000F06EFB002140
:100B8000042000F06AFB5EE08948844208D101211C
:100B9000082000F062FB0021082000F05EFB52E01C
:100BA0008448844208D10121102000F056FB002126
:100BB000102000F052FB46E07F48844208D101211A
:100BC000202000F04AFB0021202000F046FB3AE004
:100BD0007A48844208D10121402000F03EFB0021E8
:100BE000402000F03AFB2EE07548844208D10121F4
:100BF000802000F032FB0021802000F02EFB22E05C
:100C00007048844208D10121801500F026FB0021A4
:100C1000A01500F022FB16E06B48844208D10121A8
:100C2000401500F01AFB0021601500F016FB0AE0E9
:100C30006648844207D10121001500F00EFB002117
:100C4000201500F00AFB10BDF0B50A460021002374
:100C5000002400BF3DE0012505FA01F3156805EA0F
:100C600003049C4234D105684F000326BE40B543BF
:100C7000056015794E00B540066835430560157965
:100C8000012D02D01579022D16D185684F0003265B
:100C9000BE40B543856055794E00B5408668354302
:100CA0008560456801268E40B54345604568967964
:100CB0008E40B6B235434560C5684F000326BE403E
:100CC000B543C560D5794E00B540C6683543C560AB
:100CD000491C1029BFD3F0BD4FF6FF710160002100
:100CE000017141718171C171704708B54FF4803253
:100CF0000092009A0A430092009AC261C161009A70
:100D0000C261C2690092C269009208BD0246002019
:100D100013690B400BB1012000E000207047014631
:100D2000086980B270470246002053690B400BB13E
:100D3000012000E0002070470146486980B27047FA
:100D400001837047418370470AB1018300E041830A
:100D500070474161704742694A4042617047F0B54F
:100D6000002300244D07ED0E02FA05F3CE1000F12A
:100D7000200555F826504E07F70E0F26BE40B54306
:100D8000CF1000F1200646F82750CE1000F12005C4
:100D900055F8265045EA0304CE1000F1200545F829
:100DA0002640F0BD0000024000040240000802405E
:100DB000000C0240001002400014024000180240E3
:100DC000001C024000200240002402400028024093
:100DD000F948006840F00100F74908600020F64932
:100DE00008310860F4480068F4490840F249086096
:100DF000F348091D0860F348EF4984310860F04862
:100E00001038091D0860EC48006820F48020EA4989
:100E100008600020E8490C310860E7498C3108601F
:100E200070470021E44A921C117011460870704707
:100E300010B501460022002300204A11012A02D1E8
:100E4000DD4C236808E0022A03D1DB4C70342368B0
:100E500002E0D94C7434236801F01F02012494404D
:100E60001C400CB1012000E0002010BD38B500206E
:100E700000900024002500BF3120FFF7D9FF054670
:100E80000098401C00900098B0F5A04F01D0002DB4
:100E9000F2D03120FFF7CCFF08B1012400E000249C
:100EA000204638BD01460020C34A106820F0F800F3
:100EB00040EAC10010607047C349086070470021D4
:100EC000BD4A703211701170012802D004280AD175
:100ED00004E00121B84A7032117005E00521B64ADC
:100EE0007032117000E000BF00BF7047B749086062
:100EF000704770B5049C41EA82150126C6EB530683
:100F000045EA0645054345EA0465AB4E361D3560A6
:100F100070BDAD4908667047820142EA0172A64B76
:100F200084331A607047A8498866704710B58301FA
:100F300043EA016343EA02739F4C8834236010BD87
:100F4000A14908677047A049C8647047024600205D
:100F5000994B0833186820F0EC6042EA010318430B
:100F6000954B08331860704702460020924B0833B7
:100F7000186820F0784042EA010318438E4B08338A
:100F800018607047014600208B4A0832106820F034
:100F9000030008431060704787480830006800F07D
:100FA0000C00704701460020834A0832106820F088
:100FB000F000084310607047014600207E4A083266
:100FC000106820F4E050084310607047014600208C
:100FD000794A0832106820F4604040EAC10010608D
:100FE0007047F0B5002100220024022500260223CC
:100FF000714F08373F6807F00C0121B1042905D073
:10100000082937D105E0724F076036E0714F07605D
:1010100033E0694F3F1D3F68C7F38056664F3F1D61
:101020003F6807F03F036EB16A4FB7FBF3F7DFF895
:1010300088C10CF1040CDCF800C0CCF3881C07FB61
:101040000CF40CE0624FB7FBF3F7DFF86CC10CF166
:10105000040CDCF800C0CCF3881C07FB0CF4564FE2
:101060003F1D3F68C7F301477F1C7D00B4FBF5F7C8
:10107000076002E0564F076000BF00BF4E4F0837C1
:101080003F6807F0F0010909534F7A5C0768D740C1
:101090004760494F08373F6807F4E051890A4E4FCF
:1010A0007A5C4768D7408760434F08373F6807F44A
:1010B0006041490B484F7A5C4768D740C760F0BD34
:1010C000002100F44072B2F5407F0AD13A4A08325A
:1010D000116821F4F811414A02401143364A08329E
:1010E0001160354A70321268C0F30B031A43324B59
:1010F00070331A6070473549443908607047334986
:101100004039086070473649086070470146002042
:10111000294A8C32106820F01F004A1E1043264ACC
:101120008C321060704701460020234A8C321068D0
:1011300020F4F8504A1E40EA02201F4A8C32106008
:101140007047014600201C4A8C32106820F4401081
:1011500008431060704701460020174A8C3210681F
:1011600020F4400008431060704701460020124AF6
:101170008C32106820F440300843106070471949E1
:101180000860704739B10C4A3032126802430A4B8A
:1011900030331A6006E0084A303212688243064B48
:1011A00030331A607047F9B1034A3432126802438F
:1011B000014B34331A601CE000380240FFFFF6EAAE
:1011C000103000240030002000004742800E4742CB
:1011D0000024F40000127A0026000020FFFCFF0F1C
:1011E0005C014742E01147428F4A126882438E4BAE
:1011F0001A60704739B18C4A121D126802438A4B3B
:101200001B1D1A6006E0884A121D12688243864B35
:101210001B1D1A60704739B1834A0C3212680243B1
:10122000814B0C331A6006E07F4A0C32126882430D
:101230007D4B0C331A60704739B17B4A103212680B
:101240000243794B10331A6006E0774A1032126875
:101250008243754B10331A60704739B1724A243A91
:1012600012680243704B243B1A6006E06E4A243A2F
:10127000126882436C4B243B1A60704739B16A4A4A
:10128000203A12680243684B203B1A6006E0664A27
:10129000203A12688243644B203B1A60704739B190
:1012A000614A1C3A126802435F4B1C3B1A6006E01D
:1012B0005D4A1C3A126882435B4B1C3B1A607047C4
:1012C00039B1594A143A12680243574B143B1A6019
:1012D00006E0554A143A12688243534B143B1A6095
:1012E000704739B1504A103A126802434E4B103BD6
:1012F0001A6006E04C4A103A126882434A4B103B8F
:101300001A60704739B1484A1C3212680243464B92
:101310001C331A6006E0444A1C3212688243424B76
:101320001C331A60704739B13F4A203212680243B9
:101330003D4B20331A6006E03B4A2032126882435C
:10134000394B20331A60704739B1374A243212685A
:101350000243354B24331A6006E0334A24321268C4
:101360008243314B24331A60704739B12E4A2C32F4
:10137000126802432C4B2C331A6006E02A4A2C32A6
:1013800012688243284B2C331A60704739B1264AC1
:10139000303212680243244B30331A6006E0224A8E
:1013A000303212688243204B30331A607047012874
:1013B00008D11D493C31096841F008011A4A3C3204
:1013C000116007E018493C31096821F00801164A0C
:1013D0003C321160704739B1134A273A1278024300
:1013E000114B273B1A7006E00F4A273A12788243C6
:1013F0000D4B273B1A7070470B484030006840F097
:101400008070094940310860704701460020064A53
:10141000283A12680A400AB1012000E00020704713
:1014200001492639087070473438024010B5044627
:10143000FA48844208D101211020FFF752FF002111
:101440001020FFF74EFF57E0F548844209D10121F3
:101450004804FFF735FF00214FF40030FFF730FF5D
:101460004AE0F048844209D101218804FFF728FFAF
:1014700000214FF48020FFF723FF3DE0EA4884423B
:1014800009D10121C804FFF71BFF00214FF4002000
:10149000FFF716FF30E0E548844209D10121080535
:1014A000FFF70EFF00214FF48010FFF709FF23E044
:1014B000DF48844208D101212020FFF712FF0021DC
:1014C0002020FFF70EFF17E0DA48844209D10121FE
:1014D0008807FFF7F5FE00214FF08040FFF7F0FE90
:1014E0000AE0D548844207D101214005FFF7E8FE14
:1014F00000216005FFF7E4FE10BD2DE9FF4705461A
:101500000E460024A14600BFA046B08900B100BF2E
:101510002C8A24F44054F08804432C82AC8941F294
:101520000C608443B08831890843718908430443BF
:10153000AC81AC8A24F44074B0890443AC82684620
:10154000FFF74FFDB548854202D0B948854202D128
:10155000DDF80C9001E0DDF80890A88900F4004067
:1015600040B109EBC90000EB091031684900B0FB3C
:10157000F1F707E009EBC90000EB091031688900B9
:10158000B0FBF1F76420B7FBF0F0040120096421FF
:1015900001FB1078A88900F4004040B1322000EB34
:1015A000C800B0FBF1F000F00700044308E032206F
:1015B00000EB08106421B0FBF1F000F00F000443D1
:1015C0002C81BDE8FF874FF4165101600021818016
:1015D000C18001810C21418100218181704710B5BA
:1015E00002460020108A20F470600B884C88234348
:1015F0008C882343CC8823431843108210BD0021DC
:10160000018041808180C180704721B1828942F48C
:101610000052828104E082894DF6FF731A40828174
:101620007047028B02F47F420283028B0A430283DB
:10163000704721B1828942F40042828103E08289AD
:10164000C2F30E028281704721B1828A42F40062A5
:10165000828204E0828A4FF2FF731A4082827047CE
:10166000C1F308028280704701468888C0F30800F1
:101670007047028A4FF6F0731A400282028A0A43C8
:101680000282704721B1828942F00202828104E025
:1016900082894FF6FD731A408281704782894FF22A
:1016A000FF731A40828182890A4382817047028ACD
:1016B0004FF6DF731A400282028A0A4302827047A1
:1016C00021B1028A42F48042028204E0028A4BF68F
:1016D000FF731A4002827047818941F001018181C4
:1016E000704721B1828A42F00802828204E0828A35
:1016F0004FF6F7731A4082827047028BD2B2028390
:10170000028B42EA01220283704721B1828A42F0B1
:101710002002828204E0828A4FF6DF731A408282BE
:10172000704721B1828A42F01002828204E0828AEC
:101730004FF6EF731A4082827047828A4FF6FB732E
:101740001A408282828A0A438282704721B1828A49
:1017500042F00202828204E0828A4FF6FD731A4050
:10176000828270471AB1838A0B43838202E0838AA4
:101770008B4383827047F0B5034600240026002582
:10178000002040F66A17B94200D100BF1846C1F3E5
:10179000421401F01F06012707FA06F5012C01D1BA
:1017A0000C3004E0022C01D1103000E014301AB1EA
:1017B00007682F43076002E00768AF430760F0BD8A
:1017C00002460020B1F5007F00D100BF13880B4016
:1017D0000BB1012000E00020704701F40072B2F567
:1017E000007F00D100BFCA430280704770B5024637
:1017F000002400230025002040F66A16B14200D1E3
:1018000000BFC1F3421501F01F03012606FA03F3DE
:10181000012D13D19689334017E0000000100140DC
:101820000044004000480040004C00400050004090
:101830000014014000780040007C0040022D02D1DD
:10184000168A334001E0968A33400C12012606FACC
:1018500004F41688344013B10CB1012000E00020DC
:1018600070BD10B50022002340F66A14A14200D1D9
:1018700000BF0A1201249440A3B2DC43048010BDCF
:1018800010B50446FE48844208D101210846FFF7FE
:1018900028FD00210120FFF724FD9DE0B4F1804FD9
:1018A00008D101210846FFF70BFD00210120FFF7B9
:1018B00007FD91E0F348844208D101210220FFF79F
:1018C000FFFC00210220FFF7FBFC85E0EE4884428C
:1018D00008D101210420FFF7F3FC00210420FFF7C9
:1018E000EFFC79E0E948844208D101210820FFF7A4
:1018F000E7FC00210820FFF7E3FC6DE0E4488442A8
:1019000008D101211020FFF7DBFC00211020FFF798
:10191000D7FC61E0DF48844208D101212020FFF795
:10192000CFFC00212020FFF7CBFC55E0DA488442B1
:1019300008D101210220FFF7D4FC00210220FFF78B
:10194000D0FC49E0D548844209D101210804FFF7C1
:10195000C8FC00214FF48030FFF7C3FC3CE0D048C6
:10196000844209D101214804FFF7BBFC00214FF458
:101970000030FFF7B6FC2FE0CA48844209D10121AC
:101980008804FFF7AEFC00214FF48020FFF7A9FC8C
:1019900022E0C548844208D101214020FFF790FC95
:1019A00000214020FFF78CFC16E0C048844208D19B
:1019B00001218020FFF784FC00218020FFF780FCBC
:1019C0000AE0BB48844207D101218015FFF778FC6B
:1019D0000021A015FFF774FC10BD00220288A84B5F
:1019E00098420ED0AC4B98420BD0B0F1804F08D04B
:1019F000A44B984205D0A44B984202D0A34B9842E6
:101A000004D14FF68F731A404B881A43A04B98426B
:101A100007D0A04B984204D04FF6FF431A400B89E1
:101A20001A4302804B68C3620B880385944B98422B
:101A300002D0994B984201D18B7A0386012383828D
:101A400070474FF0FF3141600021018001814180EA
:101A5000817270470185828270470A4600210188A1
:101A60004FF68F73194011430180704741627047F0
:101A7000C16270470146486A70470146088D704749
:101A800021B1028842F00202028004E002884FF68F
:101A9000FD731A400280704721B1028842F00402AF
:101AA000028004E002884FF6FB731A400280704700
:101AB00021B1028842F08002028004E002884FF6E1
:101AC0007F731A400280704702884FF6F7731A40FE
:101AD000028002880A430280704702884FF6FF4363
:101AE0001A40028002880A430280704721B10288AE
:101AF00042F00102028004E002884FF6FE731A40B1
:101B00000280704770B5002400220023058C4FF638
:101B1000FE7635400584028C8388048B4FF68F75E2
:101B20002C40B51E2C400D882C43751E2A408D89F3
:101B30002A434D882A43524DA84202D0564DA8420E
:101B400013D14FF6F7752A40CD892A434FF6FB751E
:101B50002A408D882A434FF6FF652B404FF6FF55EC
:101B60002B400D8A2B434D8A2B43838004838D6841
:101B70004563028470BD70B5002400220023058CEB
:101B80004FF6EF7635400584028C8388048B48F647
:101B9000FF752C404FF6FF452C400D884FF6FF7621
:101BA00006EA05252C434FF6DF752A408D8906EAA3
:101BB00005152A434D8806EA05152A43304DA842EB
:101BC00002D0354DA8421DD14FF67F752A40CD89F0
:101BD0004FF6FF7606EA05152A434FF6BF752A40F1
:101BE0008D8806EA05152A434FF6FF352B404FF244
:101BF000FF752B400D8A06EA85052B434D8A06EAC0
:101C000085052B43838004838D688563028470BDC2
:101C100070B5002400220023058C4FF6FF66354086
:101C20000584028C8388848B4FF68F752C404FF689
:101C3000FC752C400D882C434FF6FF552A408D89AA
:101C40004FF6FF7606EA05252A434D8806EA052564
:101C50002A430B4DA84202D00F4DA84238D14FF273
:101C6000FF752A40CD894FF6FF7606EA05252A43FF
:101C70004FF6FF352A408D8806EA05252A4319E0EC
:101C8000000001400004004000080040000C00403B
:101C900000100040001400400004014000400140DA
:101CA000004401400048014000180040001C004072
:101CB000002000404EF6FF752B404DF6FF752B407F
:101CC0000D8A06EA05152B434D8A06EA05152B43B6
:101CD000838084838D68C563028470BD70B50022E3
:101CE00000230024058C4EF6FF7635400584038CD6
:101CF0008488828B48F6FF752A404FF6FF452A40BC
:101D00000D884FF6FF7606EA05252A434DF6FF7546
:101D10002B408D8906EA05352B434D8806EA0535AB
:101D20002B43FE4DA84202D0FD4DA84208D14BF6F0
:101D3000FF752C400D8A4FF6FF7606EA85152C4379
:101D4000848082838D680564038470BD00210180D6
:101D50004180818081608181C1810182418270479F
:101D600070B50346002000241846183001258D4028
:101D7000ACB21D8CA5431D8409B108290AD100EB22
:101D8000610005684FF68F7635400560056815439C
:101D900005600FE00D1FC5F34E052844056848F6A1
:101DA000FF763540056005684FF6FF7606EA0226A5
:101DB0003543056070BD4163704781637047C163FF
:101DC0007047016470470A460021018B4FF68F73FC
:101DD00019401143018370470A460021018B48F6E0
:101DE000FF7319404FF6FF7303EA0223194301837F
:101DF00070470A460021818B4FF68F7319401143BB
:101E0000818370470A460021818B48F6FF73194091
:101E10004FF6FF7303EA02231943818370470A4692
:101E20000021018B4FF6F77319401143018370476E
:101E30000A460021018B4FF2FF7319404FF6FF73E2
:101E400003EA02231943018370470A460021818B6C
:101E50004FF6F77319401143818370470A460021FA
:101E6000818B4FF2FF7319404FF6FF7303EA022391
:101E70001943818370470A460021018B4FF6FB739B
:101E800019401143018370470A460021018B4FF628
:101E9000FF3319404FF6FF7303EA0223194301830E
:101EA00070470A460021818B4FF6FB73194011439E
:101EB000818370470A460021818B4FF6FF3319401A
:101EC0004FF6FF7303EA02231943818370470A46E2
:101ED0000021018B4FF67F73194011430183704736
:101EE0000A460021018BC1F30E014FF6FF7303EA8E
:101EF00002231943018370470A460021818B4FF664
:101F00007F7319401143818370470A460021818BFA
:101F1000C1F30E014FF6FF7303EA022319438183D5
:101F200070470A460021018C4FF6FD73194011439A
:101F3000018470470A460021018C4FF6F77319405F
:101F40001143018470470A460021018C4FF6DF736C
:101F500019404FF6FF7303EA0213194301847047D7
:101F60000A460021018C4FF67F7319404FF6FF732C
:101F700003EA02131943018470470A460021018CC9
:101F80004FF6FF5319404FF6FF7303EA022319433C
:101F9000018470470A460021018C4FF2FF731940FB
:101FA0004FF6FF7303EA02231943018470470A4680
:101FB0000021018C4DF6FF7319404FF6FF7303EAC1
:101FC000023319430184704730B5002301248C404B
:101FD000A3B2048C9C430484048C02FA01F5ADB2D4
:101FE0002C43048430BD30B5002304248C40A3B2BC
:101FF000048C9C430484048C02FA01F5ADB22C439A
:10200000048430BD828B4FF2FF331A408283828B6F
:102010004FF6FF7303EA01231A4382837047F0B53A
:102020000C461546002100220026078C4EF6FF7C48
:1020300007EA0C070784818B028C4FF6FF7707EACB
:10204000043640F6FF4739404FF6FF7707EA052789
:1020500039434FF6FF7707EA0337394345F6FF77F1
:102060003A4046F480573A4381830284F0BD828B24
:102070004FF6F3731A408283828B0A438283704740
:10208000F0B50C461546002100220026078C4FF6BD
:10209000FF6C07EA0C070784818B028C4FF6FF77F1
:1020A00007EA04264FF60C7739404FF6FF7707EA28
:1020B00003172F4339434FF2FF573A4046F48077D6
:1020C0003A4381830284F0BD028B4FF2FF331A4002
:1020D0000283028B4FF6FF7303EA01231A43028344
:1020E0007047F0B50C461546002100220026078CEB
:1020F0004FF6EF7C07EA0C070784018B028C4FF642
:10210000FF7707EA041640F6FF4739404FF6FF779E
:1021100007EA033739434FF6FF7703E00000014039
:102120000004014007EA052739434FF65F773A403C
:1021300046F010073A4301830284F0BD028B4FF64C
:10214000F3731A400283028B0A4302837047F0B58F
:102150000C46154600210022068C4FF6FE773E40C5
:102160000684018B028C4FF60C7631407E1C06EA09
:1021700003162E4331434FF6F576324044F0010604
:10218000324301830284F0BD70B505460C462088B9
:1021900050B92389A28861882846FFF7D8FFE188D3
:1021A0002846FFF7CBFF25E0208804280AD12389A1
:1021B000A28861882846FFF794FFE1882846FFF748
:1021C00083FF17E0208808280AD12389A288618824
:1021D0002846FFF755FFE1882846FFF748FF09E04A
:1021E0002389A28861882846FFF719FFE1882846DD
:1021F000FFF708FF70BD002101804180012181802F
:102200000021C180018170472DE9F04105460C464F
:1022100000260127608808B9022600E00026A08871
:10222000012801D1022700E001272088A0B92389D5
:10223000A28861882846FFF78AFFE1882846FFF7D1
:102240007DFF23893A4631462846FFF74AFFE18859
:102250002846FFF739FF13E02389A28861882846C2
:10226000FFF73FFFE1882846FFF72EFF23893A4614
:1022700031462846FFF76BFFE1882846FFF75EFFEF
:10228000BDE8F0810146486B70470146886B704796
:102290000146C86B70470146086C70470A884B8836
:1022A0001A438B881A43CB881A430B891A434B89EC
:1022B0001A438B891A43A0F84420704700210180FB
:1022C00041808180C180018141818181704731B12C
:1022D000B0F8442042F40042A0F8442005E0B0F8F1
:1022E0004420C2F30E02A0F84420704721B1828836
:1022F00042F00402828004E082884FF6FB731A40A9
:102300008280704721B1828842F00102828004E01D
:1023100082884FF6FE731A40828070471AB1838913
:102320000B43838102E083898B43838170478182E1
:10233000704702460020138A0B400BB1012000E0D9
:1023400000207047CA430282704730B50246002021
:1023500000230024158A05EA0103958905EA010492
:1023600013B10CB1012000E0002030BDCA4302824D
:10237000704741EA0203A0F8483070471AB18389D8
:102380000B43838102E083898B438381704721B1B2
:10239000828842F00802828004E082884FF6F77358
:1023A0001A408280704701894FF6F872114001810E
:1023B00070470A46002101894FF68F731940114377
:1023C0000181704730B504460D4629462046FFF787
:1023D000F0FF208940F00700208130BD2DE9F04159
:1023E00004460D4616461F46602D06D13B46012287
:1023F00031462046FFF775FE05E03B460122314697
:102400002046FFF7A4FE29462046FFF7D2FF208989
:1024100040F007002081BDE8F08130B50C46002176
:102420000189C9B24FF6FF7505EA03251543254317
:102430002943018130BD2DE9F04105460E4617467E
:102440009846002443463A4631462846FFF7E5FFC2
:102450002C894FF6F870044044F007044FF68F7053
:10246000044044F070042C81BDE8F081F0B50446CE
:102470000D4616461F463B46324629462046FFF784
:10248000CCFF208940F480402081F0BD82884FF647
:102490008F731A40828082880A4382807047028943
:1024A0004FF6F8731A40028102890A43028170478D
:1024B00002894FF67F731A40028102890A43028122
:1024C0007047F0B50C4615461E4600210022002339
:1024D0000189028B038C4FF6F877394021434FF680
:1024E000FC473A4040F201173A434FF6DD773B4054
:1024F0004FF6FF7707EA06172F433B43018102831C
:102500000384F0BD21B1828842F08002828004E021
:1025100082884FF67F731A4082807047A0F850106F
:1025200070470000DFED300AB5EEC00A60EE200A09
:10253000BDEEE01A11EE100AF1EE10FA38BF401E9F
:1025400000EE100A9FED291AB8EEC00A70EEC00A1C
:1025500020EE810ABCEEC00A10EE100A00EE100A4E
:102560000028B8EEC00A10EE810AB8BF002004DBD4
:10257000B0F5807FC8BF4FF480701D4960EE000A3F
:10258000B6EE001ADFED1C2A9FED1A2A60EE011A42
:1025900060EE225A20EE813A20EE022A21EEA01AA5
:1025A00001EB800073EE655A62EE202AB7EE006AF6
:1025B00033EE003AD0EC043A76EE611A71EE600A1E
:1025C00035EEE20A33EE413A32EEC21A70EEA10A5B
:1025D00020EE230A64EE831A04EE200A45EE011A67
:1025E00031EE800A7047000083F9223E00008043EC
:1025F000AC410008ABAA2A3EABAAAA3EDFED300AE6
:10260000B5EEC00A60EE200ABDEEE01A11EE100A27
:10261000F1EE10FA38BF401E00EE100A9FED291AA5
:10262000B8EEC00A70EEC00A20EE810ABCEEC00A05
:1026300010EE100A00EE100A0028B8EEC00A10EEE4
:10264000810AB8BF002004DBB0F5807FC8BF4FF41B
:1026500080701D4960EE000AB6EE001ADFED1C2AFC
:102660009FED1A2A60EE011A60EE225A20EE813A9E
:1026700020EE022A21EEA01A01EB800073EE655ACB
:1026800062EE202AB7EE006A33EE003AD0EC043A4C
:1026900076EE611A71EE600A35EEE20A33EE413AE7
:1026A00032EEC21A70EEA10A20EE230A64EE831AFB
:1026B00004EE200A45EE011A31EE800A7047000050
:1026C00083F9223E00008043BC450008ABAA2A3EA5
:1026D000ABAAAA3E9FED3A0A5FEA920C53D000BF24
:1026E000F0EC010A0B1DB0EC011A60EEA00A41EEFD
:1026F000010AF5EEC00AF1EE10FAC6BFB1EEE01A1B
:1027000081ED001A81ED000AF0EC010A191DB0EC10
:10271000011A60EEA00A41EE010AF5EEC00AF1EEE0
:1027200010FAC6BFB1EEE01A83ED001A83ED000A7D
:10273000F0EC010A0B1DB0EC011A60EEA00A41EEAC
:10274000010AF5EEC00AF1EE10FAC6BFB1EEE01ACA
:1027500081ED001A81ED000AF0EC010A191DB0ECC0
:10276000011A60EEA00A41EE010AF5EEC00AF1EE90
:1027700010FAC6BFB1EEE01A83ED001A83ED000A2D
:10278000BCF1010CACD112F0030208BF704700BFCE
:10279000F0EC010A0B46B0EC011A091D60EEA00A2C
:1027A00041EE010AF5EEC00AF1EE10FAC6BFB1EE35
:1027B000E01A83ED001A83ED000A521EE8D170473B
:1027C000000000002DE9F04F8D082DED048B82B044
:1027D0000026AC463446019506EB0C0909EB0C0AC1
:1027E0000AEB0C0800EBC60700EBC90900EBCA0AAC
:1027F00000EBC80897ED003AD9ED003ADAED006A2F
:1028000098ED006A97ED010ADAED014A33EE265A97
:1028100073EE860A99ED014AD8ED015A30EE241A7A
:102820004FEA440B02EBCB0E70EE644A74EE251AAD
:1028300035EE200A9EED002ADEED012A87ED000A22
:1028400031EE210A73EEC63A34EE656A87ED010A6D
:1028500035EE600A33EE663A71EE610A02EBC407A8
:1028600074EEE35A33EE064A97ED005A73EEA41A5B
:10287000D7ED014A33EE461A24EE056A0BEB040746
:1028800025EE855A02EBC70760EE026A65EEA45A90
:1028900024EE244A97ED003AD7ED013A60EEA24AC1
:1028A00020EE822A21EE037A20EE220A61EEA30AAC
:1028B00021EE833A61EE231A76EEA42A32EE400A24
:1028C00036EE251A75EE443AC9ED002A77EE200A55
:1028D00089ED010A73EE611A8AED001ACAED013A18
:1028E000C8ED000A761CC8ED011A1C446D1E7FF469
:1028F00073AF4FF6FF7404EA830B019B0093042B24
:102900007DD966464FEA9C0C4FF00008C146ACF1F9
:10291000010E00BF4FEA480303EB080402EBC303B8
:1029200002EBC80593ED003AD3ED014A02EBC40374
:1029300095ED005AD5ED015A93ED006A93ED014AE9
:10294000D8444B4603EB0C0404EB0C0707EB0C0AD2
:1029500000EBC30500EBC70700EBC40400EBCA0A99
:10296000D5ED003A97ED007AD4ED008A9AED008A11
:1029700095ED010AD4ED010AD7ED017ADAED011ADD
:1029800033EEC72A70EE676A70EEE12A33EE877A7B
:1029900078EE883A30EE270A38EEC81A70EEA11A9F
:1029A00072EE227A32EE622A77EE232A70EE618A84
:1029B00036EEC18A30EE210A77EE630A31EE261A2E
:1029C000C5ED002A85ED010A28EE050A67EE856A45
:1029D00028EE258A20EE837A20EEA49A68EE831AE8
:1029E00062EE062A61EE063A62EE040A67EEA57A06
:1029F00068EEA48A21EE041A36EE882A00E027E069
:102A000077EE286A71EEC91A30EE670AC4ED006AE3
:102A100032EE811AC4ED011A73EEE00A87ED002A46
:102A200087ED010A8AED001A3344CAED010A8B4290
:102A300088D309F10109F1457FF66CAF4FF6FF73BA
:102A400003EA8B0B009B9B080093042B3FF659AFC6
:102A5000DDF8041090ED000AD0ED042A90ED025A42
:102A600090ED031AD0ED064A90ED073A30EE222A97
:102A7000D0ED011AD0ED050A75EE243A31EE034A85
:102A800030EE620A71EEA02A31EE431A32EE233A9A
:102A900071EEE00A75EE641A72EE844A32EE632A31
:102AA00072EEC43A80ED003A70EE012AC0ED014AA0
:102AB00030EEE14A80ED022A30EE410AC0ED033AE1
:102AC00071EEA00AC0ED042A80ED054A80ED060AE9
:102AD000C0ED070A2030491EBCD102B0BDEC048B0A
:102AE000BDE8F08F2DE9F04F4FEA910A2DED048BF0
:102AF00082B00024D446A046CDF804A004EB0C0517
:102B000005EB0C0606EB0C0900EBC40700EBC60650
:102B100000EBC50500EBC909D7ED011AD6ED012A76
:102B200095ED006AD9ED006AD7ED005A96ED007A6E
:102B3000D5ED010A99ED011A36EE262A71EEA23A78
:102B400035EE873A71EEE21A30EE815A70EEC12A04
:102B50004FEA480B02EBCB0E73EE020A9EED004AE1
:102B6000DEED014AC7ED000A73EE850A36EE666AAD
:102B700075EEC75AC7ED010A33EE422A02EBC807C9
:102B800031EE861A33EEC53A71EEC61A97ED006A39
:102B900097ED015A75EEE20A0BEB080702EBC70747
:102BA00075EEA22AD7ED005AD7ED013A60EE866A9B
:102BB00022EE047A62EEA57A23EE044A21EE066A3A
:102BC00061EEA55A60EE850A23EE243A22EE242A0D
:102BD00021EE051A61EEA31A62EEA32A76EE203AE0
:102BE00037EE433A74EE020A36EEC11A85ED003A2A
:102BF00077EEE11AC5ED010A35EEA22A86ED001A3C
:102C0000C6ED013AC9ED001A641C89ED012A984409
:102C1000BAF1010A7FF472AF4FF6FF7404EA830B36
:102C2000019B0093042B7CD966464FEA9C0C4FF025
:102C30000008C146ACF1010E4FEA480303EB08045B
:102C400002EBC30302EBC805D3ED003A93ED017A22
:102C500002EBC403D5ED006AD5ED015AD3ED004A6D
:102C600093ED013AD8444B4603EB0C0404EB0C07FC
:102C700007EB0C0A00EBC30500EBC70700EBC4042D
:102C800000EBCA0A95ED012A97ED018A95ED001A2D
:102C9000D4ED008AD4ED017A97ED009ADAED001AAE
:102CA000DAED010A32EE485A71EE492A38EEE14A6D
:102CB00032EE082A37EEA08A37EEE06A78EEA11AE3
:102CC00031EE091A75EE048A72EEC67A72EE862A21
:102CD00071EE610A31EE211A35EE444A32EE489A1D
:102CE00085ED001A32EE081A28EEA66A27EEA65ADB
:102CF00068EEA58A85ED011A20EEA31A69EE231A63
:102D000022EEA42A24EE248A67EEA57A29EE079AF9
:102D100060EE870A24EE034A62EE832A35EE685A93
:102D200000E027E036EE276A71EE497A31EEA01A0C
:102D300072EE440AC4ED007A84ED011A78EE221A8C
:102D400087ED005A87ED016ACAED000A3344CAEDE7
:102D5000011A8B4288D309F10109F1457FF66CAF66
:102D60004FF6FF7303EA8B0B009B9B080093042B29
:102D70003FF65AAFDDF8041090ED003AD0ED044A6A
:102D8000D0ED032A90ED071A90ED024AD0ED061A15
:102D9000D0ED013AD0ED050A33EE242A72EE815AC5
:102DA00033EE643A34EE215A73EEA04A73EEE03A01
:102DB00032EEC11A74EE610A32EE454A72EE052A0D
:102DC00074EEA51A34EEE55A73EE414A33EEA02AAA
:102DD00033EE011A33EEE03A62EE805A61EE800A79
:102DE00064EE003A65EE002AC0ED005A64EE801AE7
:102DF000C0ED010A22EE002AC0ED023A21EE004A9F
:102E0000C0ED032A23EE001AC0ED041A80ED052A56
:102E100080ED064A80ED071A2030491EACD102B081
:102E2000BDEC048BBDE8F08F70B504460D4680788C
:102E30002188A389626801280ED02846FFF7C2FCCA
:102E4000E078012818BF70BDE28921882846A36870
:102E5000BDE8704000F066B894ED040A2846FFF71C
:102E600041FEEDE710B40180234C446082704FF0C6
:102E7000000CC370B1F5807F20D004DC10292FD066
:102E8000402906D122E0B1F5806F0FD0B1F5805F07
:102E900004D04FF0FF3C10BC604670470121818197
:102EA000C18116499FED160A816016E004218181D7
:102EB000C18114499FED140A81600EE010218181C7
:102EC000C18112499FED120A816006E04021818193
:102ED000C18110499FED100A816080ED040ADAE794
:102EE0004FF480718181C1810C499FED0D0A816091
:102EF00080ED040ACFE70000C8510008C849000867
:102F000000008039CE4900080000803AE6490008F8
:102F10000000803B464A00080000803CC64B000889
:102F20000000803D2DE9F0014E0801244FF0000C17
:102F300004EB51076146A6F102082CE061452AD254
:102F400000EBCC0500EBC104D5ED000A94ED000ABE
:102F5000C4ED000A85ED000AD5ED010A94ED010AE1
:102F6000C4ED010A85ED010ACC1900EBC4050CEB98
:102F7000070400EBC40495ED000AD4ED000AC5ED8A
:102F8000000A84ED000AD4ED010A95ED010AC5EDB1
:102F9000010A84ED010A00EBC104B44400EBCC0C3F
:102FA00094ED020ADCED000A891CC4ED020A8CEDE6
:102FB000000ADCED010A94ED030AC4ED030A8CED6E
:102FC000010AB3F800C089B203EB42034145B5D909
:102FD000BDE8F00170472DE9F00701254C0805EB2D
:102FE00051064FF0000C651E6146002D88BFA846B3
:102FF0002ED8BDE8F0077047614529D250F831500E
:1030000050F83C7040F8317040F83C5000EBC1077C
:1030100000EBCC097D68D9F804A0C7F804A0C9F872
:1030200004508D190CEB060750F8359050F837A076
:1030300040F835A040F8379000EBC50500EBC70716
:10304000D5F80490D7F804A0C5F804A0C7F80490F8
:1030500000EBC105A444AF6850F83C90C5F8089057
:1030600040F83C7000EBCC0CEF68DCF80490C5F83D
:103070000C90CCF80470B3F800C0891C03EB420339
:103080004145B9D3BDE8F00770472DE9F00F0124A1
:103090004D084FF0000C04EB5107012D9CBFBDE81B
:1030A000F00F7047014600EB870400264FEA5508F1
:1030B00015E000BFBCEB460F11D950F82CA0D1F899
:1030C0000090C1F800A040F82C900CEB0709D4F850
:1030D00000A050F829B0C4F800B040F829A0AC44D2
:1030E000D1F8049050F82CA0C1F804A040F82C901E
:1030F000B3F800C008310834761C03EB4203B8F182
:103100000108D7D1BDE8F00F704770470FB40449EC
:1031100010B503AA029800F04BFA10BC5DF814FB3E
:10312000200000202DE9F0410E46044600202062D8
:103130002046E168884730B3252805D0D4E901212D
:103140009047206A401CF2E7E16820460027884744
:10315000050018D0A5F14100192802D820354FF4F8
:1031600000673246294620462760FDF747F840B100
:10317000012804D0F61D26F007060836D8E7361DCC
:10318000D6E72846DAE7206ABDE8F0817047704745
:103190007047704770472DE9FF4F0C461E464FF0B1
:1031A000FF378BB0D2E90001DDF860800A908A46D3
:1031B000C1F30A5505B93D46002108464FF000000D
:1031C000BAF1000F00F4400005DA00EB80004FF484
:1031D000400101EA50004FEA9059B9F1010F00DDBA
:1031E000B9460A9850EA4A000ED044F61050A5F2AB
:1031F000FF3545432F14B8F1000F1ED07542291E2C
:103200001EDDC9F100021CE0B8F1010F4FF0000013
:1032100001D0302103E0F24305E02154401CB042CC
:10322000FBDB30460022002121540B99C1F80880B5
:10323000C1E900200FB0BDE8F08FBD1B6D1CDEE7BB
:103240004A4600DA694206A800F066FA06AB93E83F
:10325000070003AB83E8070050460A9900F03EFBE5
:103260008DE80700A0F500501F3800900398002D4E
:1032700009DD42F21F014A46084403A9039068464B
:1032800000F09DFD08E0A0F500504A461F3803A954
:103290000390684600F0A7FD8DE807000004000CCD
:1032A00003D04FF0FF30410800E01046B8F1000FA6
:1032B00003D00022009215461EE0751E05D400F0D2
:1032C0008DF9303262556D1EF9D5B346012208439F
:1032D00002D000227F1C04E02078302801D1002297
:1032E0007F1E002A099786D01DE0112D07DA00F015
:1032F00075F9303262556D1C50EA0102F5D1084370
:1033000002D00098C8B10EE00021681E05E0235CE1
:10331000625C63542254401E491C8142F7DBAB4679
:10332000A81B401E0990002004F80B000B98099A76
:10333000C0F80880C0E9002B7CE711264FF0000898
:1033400059E72DE9F04F88460446D21D22F00701C7
:1033500091B0D1E90001CDE90A0100F07AFE024600
:103360000B98C00F01D02D2007E02068810701D500
:103370002B2002E0202101EAC000032A099001D09D
:10338000072A05DB03464146204600F085F90BE19C
:103390002078800601D5E06900E00620B8F1650FCD
:1033A000814606D0B8F1660F18D0B8F1670F70D11A
:1033B00031E00020B9F1110F009001DB112301E091
:1033C00009F101030AAA01A90CA8FFF7E4FEDDE94F
:1033D0000C70002609F10105834647E001204B46A9
:1033E00000904FF000470AAA01A90CA8FFF7D3FEEE
:1033F000DDE90DB00C995D46002610B909F1010018
:103400000D18B9EB050003D4C0F1FF3609F1010531
:10341000A5EB09002BE0B9F1010F01DA4FF001092A
:103420000020B9F1110F0090484601DD112300E0A2
:1034300003460AAA01A90CA8FFF7ADFEDDE90C704E
:103440004D4600268346207800070AD4AB4500DAB3
:103450005D4601A8012D04DD411911F8011C302938
:1034600007D04F4502DA17F1040F04DA0120824633
:103470000FE06D1EEEE7002F02DCED1B3E4403E083
:10348000781CA84200DD7D1CB81B00F1010A4FF03A
:1034900000472078000703D4AA4501DB4FF0FF3A2C
:1034A0000021B7F1004F0DF143088DF8431024D0EF
:1034B00002202B23002F01DA7F422D230A21021E36
:1034C000A0F1010000DC5FB197FBF1FC97FBF1F28A
:1034D00001FB1C7C17460CF1300C08F801CDEEE71F
:1034E000A8F1010003702188090501D5452100E0FC
:1034F0006521A0F1010800F8011C09980FA9A1EBB2
:103500000807FF1D00B10120411901EBEA70A16914
:103510003844081A401EA0612078C00602D4204614
:10352000AFF30080099828B1D4E901219047206ABF
:10353000401C20622078C00622D52046AFF30080D0
:103540001EE0002E04DBB34502DD01A8805D00E033
:103550003020D4E901219047206A401C2062761C6B
:10356000AAF101005FEA000A0AD100F033F8C0684E
:103570000168405CD4E901219047206A401C206228
:10358000281EA5F10105DCDC07E0D4E9012118F8CB
:10359000010B9047206A401C2062381EA7F10107EA
:1035A000F3DC2046AFF30080032011B043E60000B7
:1035B000074B70B50D467B4400F05BF80446284687
:1035C00000F018F910B14FF0FF3070BD204670BD0B
:1035D0001FD3FFFF004870472031002030B5B0F105
:1035E0000A024FEA900E71F100034EEA817EB0EBC1
:1035F0000E0061EB91014FEA101E4EEA017E10EBC6
:103600000E0041EB11114FEA102E4EEA016E10EB45
:103610000E0041EB11214FEA104E4EEA014E10EB25
:103620000E0041EB1141401841F100014FEAD0007A
:1036300040EA41704FEAD10110EB80054FEA810466
:1036400044EA907444EB01046D1944EB0404521BEA
:10365000A3414FF0000348BF0A3200D530BD401CE3
:1036600041F1000130BD000001694A1C0261087887
:10367000704700B58FB0CDE90131002105910549B2
:103680007944CDE9031011466846FFF74BFD0FB0B2
:1036900000BD0000E5FFFFFF2DE9F0411F46044695
:1036A00003260168072A01F4006004DB08B116A5AF
:1036B00005E016A503E008B115A500E015A521F069
:1036C00010002060A069C01EA0610FB1401EA06163
:1036D0002046AFF300804FB1D4E90121384690472E
:1036E000206A401C2062C01C206206E0206AFAE7C3
:1036F000D4E9012115F8010B9047761EF8D2204637
:10370000AFF30080BDE8F0814E414E006E616E0067
:10371000494E4600696E66002DE9F047814616461F
:103720008AB0334878440DC88DE80D00304878449D
:10373000801C03AC0DC884E80D0041F69B300844A2
:10374000372190FBF1F290FBF1F5A5F1800501FB2B
:1037500012041B3C02D56442012000E00020DFF887
:1037600090A080460027FA44AAF1BE0A0DE0E007C7
:1037700009D03246684607EB47010AEB810100F0A9
:1037800032FB8DE8070064107F1C002CEFD1184F2E
:103790007F44AC3F18E0E80714D007EB04100DF1AC
:1037A000180A90E80E008AE80E00C068F04201D1C5
:1037B00098190890324606A903A800F014FB03AB41
:1037C00083E807006D10641C002DE4D13246694681
:1037D000B8F1000F03A802D000F0F1FA01E000F008
:1037E00002FBC9E90001C9F808200AB0BDE8F0876A
:1037F0001C9B0000007B00F0800070470048704771
:10380000003100207546FFF7F9FFAE460500694616
:10381000534620F00700854618B020B5FDF70CF997
:10382000BDE820404FF000064FF000074FF00008C1
:103830004FF0000B21F00701AC46ACE8C009ACE842
:10384000C009ACE8C009ACE8C0098D467047044621
:10385000AFF300802046FCF7EDFC00004FF0013C88
:1038600050F8042B51F8043B9A4221D1A2EB0C03EF
:10387000934313EACC1317D150F8042B51F8043BAF
:103880009A4215D1A2EB0C03934313EACC130BD14C
:1038900050F8042B51F8043B9A4209D1A2EB0C03D7
:1038A000934313EACC13DBD04FF00000704700BF06
:1038B000D01A01BAB1FA81F101F0180122FA01F02F
:1038C000CB40C1F12001DBB2C0B2C01A2CFA01F327
:1038D000D11A914311EAC311E6D170475FEA400C57
:1038E00008BF91F0000F4FEA8C234FEAC12243EA50
:1038F00051514FEA1C5018BF00F5F0404FEA30001C
:1039000018BF41F000415FEA6C5C00F02980BCF117
:10391000FF3F08BF40F080407047130C06BF120401
:103920004FF0100C4FF0000C130E04BF12020CF1FC
:10393000080C130F04BF12010CF1040C930F04BF09
:1039400092000CF1020CD30F04BF52000CF1010CD9
:1039500011464FF00002A0F11F00A0EB0C007047D1
:1039600011F0004F08BF704731F000413FF4D5AF70
:103970000B0C06BF09044FF0100C4FF0000C0B0E9F
:1039800004BF09020CF1080C0B0F04BF09010CF174
:10399000040C8B0F04BF89000CF1020CCB0F04BF89
:1039A00049000CF1010CCCF12003A0EB0C0022FA31
:1039B00003F302FA0CF241EA030100F1010070473F
:1039C00020F07F4C80EA030023F07F47ACEB070335
:1039D00003F57C5300F0004003F1FF032DE980491B
:1039E0004FEA154B09B44FEA144325EA0B4E24EA7B
:1039F00003480FF2042606EB132749083E785FEAD6
:103A0000320203FB0667C7F5000707FB06F64FEA1D
:103A100054374FEAD64606F1020607FB066CCCF196
:103A2000005C4FEA1C472CEA074C07FB06F40CFB32
:103A300006F504EB15464FEA961634BF00204FF00A
:103A400000404FEAD13706FB07FC4FEA1C4C0CFB49
:103A50000BF7D21B03FB0CF761EB07010CFB0EF716
:103A6000B0EB074072EB17420CFB08F734BFA2EB38
:103A70000742B2EB074261EB17414FEA0C444FEAB1
:103A8000910706FB07FC4FEA1C4C0CFB0BF7B0EB55
:103A9000C74072EB573203FB0CF734BFA2EBC742AF
:103AA000B2EBC74261EB57310CFB0EF7B0EBC7002E
:103AB00072EB57720CFB08F734BFA2EBC702B2EBF4
:103AC000C70261EB5771039F4FEA816141EA92118E
:103AD00004EBCC044FEAD1374FEA826206FB07FCC5
:103AE00042EA90124FEA80604FEA1C4C0CFB0BF745
:103AF000D21B03FB0CF761EB07010CFB0EF7B0EBDD
:103B0000074072EB17420CFB08F734BFA2EB0742E9
:103B1000B2EB074261EB17414FEA8C554FEA910730
:103B200004EB9C2406FB07FC4FEA1C4C0CFB0BF738
:103B3000B0EBC74072EB573203FB0CF734BFA2EB7C
:103B4000C742B2EBC74261EB57310CFB0EF7B0EB4B
:103B5000C70072EB57720CFB08F734BFA2EBC70229
:103B6000B2EBC70261EB577115EB4C254FEA81614F
:103B700041EA92114FEA82624FEAD13742EA90124B
:103B800006FB07FC44F100044FEA80604FEA1C4C3E
:103B90000CFB0BF7D21B03FB0CF761EB07010CFBD3
:103BA0000EF7B0EB074072EB17420CFB08F734BF7F
:103BB000A2EB0742B2EB074261EB174115EB1C1574
:103BC0004FEA813141EA92414FEA823242EA904221
:103BD0004FEA80304FEA0C7644F1000448EA034390
:103BE0004EEA0B484FF0000EB2EB080C71EB0307E6
:103BF00024BF624639464EEB0E0E4FF0000B001804
:103C0000524149414BEB0B0BB2EB080C71EB030734
:103C10007BF1000B24BF624639464EEB0E0E4FF08F
:103C2000000B0018524149414BEB0B0BB2EB080C57
:103C300071EB03077BF1000B24BF624639464EEB64
:103C40000E0E51EA020718BF46F0010616EB0E767B
:103C500055F1000254F1000103D5BDE88901BDE82A
:103C60000088BDE88901BDE80048B619524141EB22
:103C70000101A3F10103704780807F7E7D7C7B7A08
:103C80007978777676757473727171706F6E6E6D08
:103C90006C6C6B6A6A6968686766666564646363AE
:103CA00062616160605F5F5E5E5D5D5C5C5B5B5A34
:103CB0005A595958585757565655555554545353A1
:103CC00052525251515050504F4F4F4E4E4D4D4DFC
:103CD0004C4C4C4B4B4B4A4A4A4949494848484747
:103CE0004747474646464545454444444443434385
:103CF0004342424242414141002B26D4770021D029
:103D00001CB54FEA370703B44FF010004FF0100115
:103D10004FF000000FBCBDE810400BF1010BBBF1F0
:103D2000010F08BF5FEA170722BF12F1010211F16C
:103D300001014FF0004143F1000300F0004043EA6D
:103D400000007047F9D35708DAE746EA064613F150
:103D5000400F4FEA16461FDD13F1200FDFBF164359
:103D60000A46002120335B42C8D0C3F1200746EA4F
:103D7000064602FA07F74FEA164646EA0706C3F177
:103D8000200722FA03F201FA07F721FA03F14FF0B4
:103D9000000342EA0702B1E746EA020646EA06469F
:103DA0004FEA164646EA0106BCBF46EA0646360C0E
:103DB0004FF000034FF000024FF000019EE72DE9A5
:103DC000C048934630B491E8380007C831EA400C47
:103DD00048BF34EA430C03D5FFF7F2FDFFF78CFF31
:103DE000F0BCBDE800882DE9C048934630B491E8A6
:103DF000380007C810F0804F08BF13F0804F03D180
:103E000000F005F8FFF778FFF0BCBDE8008820F06F
:103E10007F4780EA030023F07F4C07EB0C03A3F5F8
:103E20007C5300F00040A3F1FE0392F0000F00F07D
:103E3000B38095F0000F00F077802DE901494FEA3B
:103E400011404FEA144621EA004800FB06FC24EA30
:103E5000064708FB06F607FB08F800FB07F718EB18
:103E600006484CEB164C4FEA124B18EB07484FEA4A
:103E700015464CEB174022EA0B4E0BFB06FC25EADD
:103E800006470EFB06F607FB0EFE0BFB07F71EEBC5
:103E9000064E4CEB164C4FF000061EEB074E4CEB5B
:103EA000174B18EB0B0840F1000018EB0E0B58EB0A
:103EB000000840F100008F1A4FF000013CBFC943D9
:103EC000661B14BFB5EB040C00213CBFC943F61BB5
:103ED0004FEA17444EEA8E0E27EA04454FEA1C4784
:103EE00004FB07622CEA074C05FB07F70CFB05F601
:103EF00004FB0CFC16EB074642EB174216EB0C4694
:103F000042EB1C421BEB060658EB0202414146EA1B
:103F10009E0601D5BDE80189B619524141EB010168
:103F2000A3F10103BDE801894FEA14454FEA1147A7
:103F300024EA054621EA074C05FB07F406FB07F7D0
:103F40000CFB06F105FB0CFC11EB074144EB17449D
:103F50004FEA124711EB0C4144EB1C4422EA074C98
:103F600005FB07F206FB07F70CFB06F605FB0CFC4E
:103F700016EB074642EB174216EB0C4642EB1C458C
:103F80006A1854F1000148BF7047B619524141EB1D
:103F90000101A3F10103704795F0000F37D04FEAFC
:103FA00011424FEA144721EA024624EA074C02FB79
:103FB00007F106FB07F70CFB06F402FB0CFC14EB05
:103FC000074441EB17414FEA154714EB0C4441EB12
:103FD0001C4125EA074C02FB07F506FB07F70CFB23
:103FE00006F602FB0CFC16EB074645EB174516EBF5
:103FF0000C4645EB1C42121951F1000148BF7047B5
:10400000B619524141EB0101A3F1010370474FEA98
:1040100014454FEA114724EA054621EA074C05FBFF
:1040200007F106FB07F70CFB06F24FF0000605FB55
:104030000CFC12EB074241EB174112EB0C4251EB27
:104040001C4148BF7047921841EB0101A3F10103E5
:10405000704703B401984100009850EAC12018BF8E
:1040600004204A0D18BF40F0010040F2FF72B2EB8D
:10407000515F08BF40F00200012808BF052002B0D0
:104080007047000010B500290AD00878002807D032
:1040900005487844FFF7E2FB002801D0002010BD5E
:1040A0000248784410BD0000EA910000E29100004F
:1040B0000808A0F500114FEA3101704743004FEAAC
:1040C000D30C4FEA3C0C43401FBF40070CF160513A
:1040D00013F0FE4F70471CF0006F03D100200CF06E
:1040E000004170470CF0004343EA507010B540EABD
:1040F000CC0000F00EF800BF000000924FEA000173
:10410000FFF7D6BF4FF000414FF00000A1F50021AE
:1041100070470EF1020E2EF0030E5EF8044B24429F
:1041200004D44FEA4102B2F17F4F11D84FEA400365
:10413000B3F17F4F0CD80ED14FEAD07CB2F17F4F54
:104140000CEB4C0C0CF1020C08BF4CEBD17C04E0E6
:104150004FF0080C01E04FEAD17C0CEB4C0324FA41
:1041600003F404F00704B4F1040C06D20EEB840C43
:10417000BDE810404CF0010C6047DFE80CF0070888
:1041800002024FF00040A0F5800010BD084642003A
:1041900018BFD2F1807288BF00F0004010BD4FF010
:1041A0004070E1EE100A7047FFF7CBB843EC7F3F59
:1041B0000000803F43EC7F3F0FB17F3F6D4E7F3F5C
:1041C0006DC47E3F24137E3FAC3A7D3F283B7C3F4D
:1041D000BE147B3F9DC7793FF853783F07BA763FBF
:1041E0000BFA743F4714733F0809713F9ED86E3F26
:1041F0005E836C3FA7096A3FD86B673F59AA643F4B
:1042000098C5613F05BE5E3F1A945B3F5348583FD7
:1042100031DB543F3D4D513F029F4D3F12D1493F4D
:1042200003E4453F70D8413FF9AE3D3F4268393F16
:10423000F304353FBB85303F4AEB2B3F5636273FD3
:104240009967223FD17F1D3FC07F183F2A68133FE7
:10425000DA390E3F9BF5083F3D9C033F275DFC3E4E
:10426000EA5AF13E7533E63E80E8DA3ECA7BCF3E3D
:1042700015EFC33E2A44B83ED47CAC3EE59AA03E3E
:1042800031A0943E938E883ECCCF783E135C603E46
:10429000C2C5473EA2102F3E8340163E73B2FA3D80
:1042A00036BDC83D05A9963D30FB483DB00AC93C26
:1042B0000BA88C24B00AC9BC30FB48BD05A996BD2B
:1042C00036BDC8BD73B2FABD834016BEA2102FBE64
:1042D000C2C547BE135C60BECCCF78BE938E88BE8D
:1042E00031A094BEE59AA0BED47CACBE2A44B8BE30
:1042F00015EFC3BECA7BCFBE80E8DABE7533E6BE1B
:10430000EA5AF1BE275DFCBE3D9C03BF9BF508BF8A
:10431000DA390EBF2A6813BFC07F18BFD17F1DBF17
:10432000996722BF563627BF4AEB2BBFBB8530BFEC
:10433000F30435BF426839BFF9AE3DBF70D841BF05
:1043400003E445BF12D149BF029F4DBF3D4D51BF50
:1043500031DB54BF534858BF1A945BBF05BE5EBFE4
:1043600098C561BF59AA64BFD86B67BFA7096ABF68
:104370005E836CBF9ED86EBF080971BF471473BFC0
:104380000BFA74BF07BA76BFF85378BF9DC779BFE1
:10439000BE147BBF283B7CBFAC3A7DBF24137EBFDD
:1043A0006DC47EBF6D4E7FBF0FB17FBF43EC7FBF3B
:1043B000000080BF43EC7FBF0FB17FBF6D4E7FBF5A
:1043C0006DC47EBF24137EBFAC3A7DBF283B7CBF4B
:1043D000BE147BBF9DC779BFF85378BF07BA76BFBD
:1043E0000BFA74BF471473BF080971BF9ED86EBF24
:1043F0005E836CBFA7096ABFD86B67BF59AA64BF49
:1044000098C561BF05BE5EBF1A945BBF534858BFD5
:1044100031DB54BF3D4D51BF029F4DBF12D149BF4B
:1044200003E445BF70D841BFF9AE3DBF426839BF14
:10443000F30435BFBB8530BF4AEB2BBF563627BFD1
:10444000996722BFD17F1DBFC07F18BF2A6813BFE5
:10445000DA390EBF9BF508BF3D9C03BF275DFCBE4C
:10446000EA5AF1BE7533E6BE80E8DABECA7BCFBE3B
:1044700015EFC3BE2A44B8BED47CACBEE59AA0BE3C
:1044800031A094BE938E88BECCCF78BE135C60BE44
:10449000C2C547BEA2102FBE834016BE73B2FABD7E
:1044A00036BDC8BD05A996BD30FB48BDB00AC9BC24
:1044B000372354A5B00AC93C30FB483D05A9963DB9
:1044C00036BDC83D73B2FA3D8340163EA2102F3E62
:1044D000C2C5473E135C603ECCCF783E938E883E8B
:1044E00031A0943EE59AA03ED47CAC3E2A44B83E2E
:1044F00015EFC33ECA7BCF3E80E8DA3E7533E63E19
:10450000EA5AF13E275DFC3E3D9C033F9BF5083F88
:10451000DA390E3F2A68133FC07F183FD17F1D3F15
:104520009967223F5636273F4AEB2B3FBB85303FEA
:10453000F304353F4268393FF9AE3D3F70D8413F03
:1045400003E4453F12D1493F029F4D3F3D4D513F4E
:1045500031DB543F5348583F1A945B3F05BE5E3FE2
:1045600098C5613F59AA643FD86B673FA7096A3F66
:104570005E836C3F9ED86E3F0809713F4714733FBE
:104580000BFA743F07BA763FF853783F9DC7793FDF
:10459000BE147B3F283B7C3FAC3A7D3F24137E3FDB
:1045A0006DC47E3F6D4E7F3F0FB17F3F43EC7F3F39
:1045B0000000803F43EC7F3F0FB17F3FB00AC9BC92
:1045C00000000000B00AC93C30FB483D05A9963DFB
:1045D00036BDC83D73B2FA3D8340163EA2102F3E51
:1045E000C2C5473E135C603ECCCF783E938E883E7A
:1045F00031A0943EE59AA03ED47CAC3E2A44B83E1D
:1046000015EFC33ECA7BCF3E80E8DA3E7533E63E07
:10461000EA5AF13E275DFC3E3D9C033F9BF5083F77
:10462000DA390E3F2A68133FC07F183FD17F1D3F04
:104630009967223F5636273F4AEB2B3FBB85303FD9
:10464000F304353F4268393FF9AE3D3F70D8413FF2
:1046500003E4453F12D1493F029F4D3F3D4D513F3D
:1046600031DB543F5348583F1A945B3F05BE5E3FD1
:1046700098C5613F59AA643FD86B673FA7096A3F55
:104680005E836C3F9ED86E3F0809713F4714733FAD
:104690000BFA743F07BA763FF853783F9DC7793FCE
:1046A000BE147B3F283B7C3FAC3A7D3F24137E3FCA
:1046B0006DC47E3F6D4E7F3F0FB17F3F43EC7F3F28
:1046C0000000803F43EC7F3F0FB17F3F6D4E7F3F47
:1046D0006DC47E3F24137E3FAC3A7D3F283B7C3F38
:1046E000BE147B3F9DC7793FF853783F07BA763FAA
:1046F0000BFA743F4714733F0809713F9ED86E3F11
:104700005E836C3FA7096A3FD86B673F59AA643F35
:1047100098C5613F05BE5E3F1A945B3F5348583FC2
:1047200031DB543F3D4D513F029F4D3F12D1493F38
:1047300003E4453F70D8413FF9AE3D3F4268393F01
:10474000F304353FBB85303F4AEB2B3F5636273FBE
:104750009967223FD17F1D3FC07F183F2A68133FD2
:10476000DA390E3F9BF5083F3D9C033F275DFC3E39
:10477000EA5AF13E7533E63E80E8DA3ECA7BCF3E28
:1047800015EFC33E2A44B83ED47CAC3EE59AA03E29
:1047900031A0943E938E883ECCCF783E135C603E31
:1047A000C2C5473EA2102F3E8340163E73B2FA3D6B
:1047B00036BDC83D05A9963D30FB483DB00AC93C11
:1047C0000BA80C25B00AC9BC30FB48BD05A996BD95
:1047D00036BDC8BD73B2FABD834016BEA2102FBE4F
:1047E000C2C547BE135C60BECCCF78BE938E88BE78
:1047F00031A094BEE59AA0BED47CACBE2A44B8BE1B
:1048000015EFC3BECA7BCFBE80E8DABE7533E6BE05
:10481000EA5AF1BE275DFCBE3D9C03BF9BF508BF75
:10482000DA390EBF2A6813BFC07F18BFD17F1DBF02
:10483000996722BF563627BF4AEB2BBFBB8530BFD7
:10484000F30435BF426839BFF9AE3DBF70D841BFF0
:1048500003E445BF12D149BF029F4DBF3D4D51BF3B
:1048600031DB54BF534858BF1A945BBF05BE5EBFCF
:1048700098C561BF59AA64BFD86B67BFA7096ABF53
:104880005E836CBF9ED86EBF080971BF471473BFAB
:104890000BFA74BF07BA76BFF85378BF9DC779BFCC
:1048A000BE147BBF283B7CBFAC3A7DBF24137EBFC8
:1048B0006DC47EBF6D4E7FBF0FB17FBF43EC7FBF26
:1048C000000080BF43EC7FBF0FB17FBF6D4E7FBF45
:1048D0006DC47EBF24137EBFAC3A7DBF283B7CBF36
:1048E000BE147BBF9DC779BFF85378BF07BA76BFA8
:1048F0000BFA74BF471473BF080971BF9ED86EBF0F
:104900005E836CBFA7096ABFD86B67BF59AA64BF33
:1049100098C561BF05BE5EBF1A945BBF534858BFC0
:1049200031DB54BF3D4D51BF029F4DBF12D149BF36
:1049300003E445BF70D841BFF9AE3DBF426839BFFF
:10494000F30435BFBB8530BF4AEB2BBF563627BFBC
:10495000996722BFD17F1DBFC07F18BF2A6813BFD0
:10496000DA390EBF9BF508BF3D9C03BF275DFCBE37
:10497000EA5AF1BE7533E6BE80E8DABECA7BCFBE26
:1049800015EFC3BE2A44B8BED47CACBEE59AA0BE27
:1049900031A094BE938E88BECCCF78BE135C60BE2F
:1049A000C2C547BEA2102FBE834016BE73B2FABD69
:1049B00036BDC8BD05A996BD30FB48BDB00AC9BC0F
:1049C0009E3B8DA5B00AC93C000400020006000110
:1049D000000500030007800080048002800680013B
:1049E00080058003800740004004400240064001EB
:1049F000400540034007C000C004C002C006C0011B
:104A0000C005C003C00720002004200220062001AA
:104A1000200520032007A000A004A002A006A001FA
:104A2000A005A003A00760006004600260066001AA
:104A3000600560036007E000E004E002E006E001DA
:104A4000E005E003E007100010041002100610015A
:104A5000100510031007900090049002900690013A
:104A600090059003900750005004500250065001EA
:104A7000500550035007D000D004D002D006D0011A
:104A8000D005D003D00730003004300230063001AA
:104A9000300530033007B000B004B002B006B001FA
:104AA000B005B003B00770007004700270067001AA
:104AB000700570037007F000F004F002F006F001DA
:104AC000F005F003F00708000804080208060801D2
:104AD00008050803080788008804880288068801FA
:104AE00088058803880748004804480248064801AA
:104AF000480548034807C800C804C802C806C801DA
:104B0000C805C803C8072800280428022806280169
:104B1000280528032807A800A804A802A806A801B9
:104B2000A805A803A8076800680468026806680169
:104B3000680568036807E800E804E802E806E80199
:104B4000E805E803E8071800180418021806180119
:104B500018051803180798009804980298069801F9
:104B600098059803980758005804580258065801A9
:104B7000580558035807D800D804D802D806D801D9
:104B8000D805D803D8073800380438023806380169
:104B9000380538033807B800B804B802B806B801B9
:104BA000B805B803B8077800780478027806780169
:104BB000780578037807F800F804F802F806F80199
:104BC000F805F803F80704000404040204060401CD
:104BD0000405040304078400840484028406840119
:104BE00084058403840744004404440244064401C9
:104BF000440544034407C400C404C402C406C401F9
:104C0000C405C403C4072400240424022406240188
:104C1000240524032407A400A404A402A406A401D8
:104C2000A405A403A4076400640464026406640188
:104C3000640564036407E400E404E402E406E401B8
:104C4000E405E403E4071400140414021406140138
:104C50001405140314079400940494029406940118
:104C600094059403940754005404540254065401C8
:104C7000540554035407D400D404D402D406D401F8
:104C8000D405D403D4073400340434023406340188
:104C9000340534033407B400B404B402B406B401D8
:104CA000B405B403B4077400740474027406740188
:104CB000740574037407F400F404F402F406F401B8
:104CC000F405F403F4070C000C040C020C060C01B0
:104CD0000C050C030C078C008C048C028C068C01D8
:104CE0008C058C038C074C004C044C024C064C0188
:104CF0004C054C034C07CC00CC04CC02CC06CC01B8
:104D0000CC05CC03CC072C002C042C022C062C0147
:104D10002C052C032C07AC00AC04AC02AC06AC0197
:104D2000AC05AC03AC076C006C046C026C066C0147
:104D30006C056C036C07EC00EC04EC02EC06EC0177
:104D4000EC05EC03EC071C001C041C021C061C01F7
:104D50001C051C031C079C009C049C029C069C01D7
:104D60009C059C039C075C005C045C025C065C0187
:104D70005C055C035C07DC00DC04DC02DC06DC01B7
:104D8000DC05DC03DC073C003C043C023C063C0147
:104D90003C053C033C07BC00BC04BC02BC06BC0197
:104DA000BC05BC03BC077C007C047C027C067C0147
:104DB0007C057C037C07FC00FC04FC02FC06FC0177
:104DC000FC05FC03FC0702000204020202060201C9
:104DD0000205020302078200820482028206820127
:104DE00082058203820742004204420242064201D7
:104DF000420542034207C200C204C202C206C20107
:104E0000C205C203C2072200220422022206220196
:104E1000220522032207A200A204A202A206A201E6
:104E2000A205A203A2076200620462026206620196
:104E3000620562036207E200E204E202E206E201C6
:104E4000E205E203E2071200120412021206120146
:104E50001205120312079200920492029206920126
:104E600092059203920752005204520252065201D6
:104E7000520552035207D200D204D202D206D20106
:104E8000D205D203D2073200320432023206320196
:104E9000320532033207B200B204B202B206B201E6
:104EA000B205B203B2077200720472027206720196
:104EB000720572037207F200F204F202F206F201C6
:104EC000F205F203F2070A000A040A020A060A01BE
:104ED0000A050A030A078A008A048A028A068A01E6
:104EE0008A058A038A074A004A044A024A064A0196
:104EF0004A054A034A07CA00CA04CA02CA06CA01C6
:104F0000CA05CA03CA072A002A042A022A062A0155
:104F10002A052A032A07AA00AA04AA02AA06AA01A5
:104F2000AA05AA03AA076A006A046A026A066A0155
:104F30006A056A036A07EA00EA04EA02EA06EA0185
:104F4000EA05EA03EA071A001A041A021A061A0105
:104F50001A051A031A079A009A049A029A069A01E5
:104F60009A059A039A075A005A045A025A065A0195
:104F70005A055A035A07DA00DA04DA02DA06DA01C5
:104F8000DA05DA03DA073A003A043A023A063A0155
:104F90003A053A033A07BA00BA04BA02BA06BA01A5
:104FA000BA05BA03BA077A007A047A027A067A0155
:104FB0007A057A037A07FA00FA04FA02FA06FA0185
:104FC000FA05FA03FA0706000604060206060601B9
:104FD0000605060306078600860486028606860105
:104FE00086058603860746004604460246064601B5
:104FF000460546034607C600C604C602C606C601E5
:10500000C605C603C6072600260426022606260174
:10501000260526032607A600A604A602A606A601C4
:10502000A605A603A6076600660466026606660174
:10503000660566036607E600E604E602E606E601A4
:10504000E605E603E6071600160416021606160124
:105050001605160316079600960496029606960104
:1050600096059603960756005604560256065601B4
:10507000560556035607D600D604D602D606D601E4
:10508000D605D603D6073600360436023606360174
:10509000360536033607B600B604B602B606B601C4
:1050A000B605B603B6077600760476027606760174
:1050B000760576037607F600F604F602F606F601A4
:1050C000F605F603F6070E000E040E020E060E019C
:1050D0000E050E030E078E008E048E028E068E01C4
:1050E0008E058E038E074E004E044E024E064E0174
:1050F0004E054E034E07CE00CE04CE02CE06CE01A4
:10510000CE05CE03CE072E002E042E022E062E0133
:105110002E052E032E07AE00AE04AE02AE06AE0183
:10512000AE05AE03AE076E006E046E026E066E0133
:105130006E056E036E07EE00EE04EE02EE06EE0163
:10514000EE05EE03EE071E001E041E021E061E01E3
:105150001E051E031E079E009E049E029E069E01C3
:105160009E059E039E075E005E045E025E065E0173
:105170005E055E035E07DE00DE04DE02DE06DE01A3
:10518000DE05DE03DE073E003E043E023E063E0133
:105190003E053E033E07BE00BE04BE02BE06BE0183
:1051A000BE05BE03BE077E007E047E027E067E0133
:1051B0007E057E037E07FE00FE04FE02FE06FE0163
:1051C000FE05FE03FE0701000000803F0000000016
:1051D000ECFF7F3FD40FC93AB1FF7F3FC70F493B78
:1051E0004EFF7F3FC1CB963BC4FE7F3F890FC93B3B
:1051F00013FE7F3F3053FB3B39FD7F3F59CB163CBD
:1052000039FC7F3F02ED2F3C11FB7F3F900E493C64
:10521000C1F97F3F0030623C4AF87F3F4B517B3CF5
:10522000ACF67F3F38398A3CE6F47F3FB6C9963CFE
:10523000F8F27F3F1C5AA33CE3F07F3F69EAAF3CA2
:10524000A7EE7F3F9B7ABC3C43EC7F3FB00AC93C52
:10525000B8E97F3FA69AD53C05E77F3F7B2AE23C31
:105260002BE47F3F2DBAEE3C29E17F3FB949FB3C5F
:1052700000DE7F3F90EC033DAFDA7F3F2F340A3DE5
:1052800037D77F3FB87B103D98D37F3F2CC3163D67
:10529000D1CF7F3F880A1D3DE2CB7F3FCC51233DDC
:1052A000CCC77F3FF698293D8FC37F3F07E02F3D56
:1052B0002ABF7F3FFC26363D9EBA7F3FD56D3C3DE1
:1052C000EAB57F3F91B4423D0FB17F3F2FFB483D90
:1052D0000DAC7F3FAF414F3DE3A67F3F0E88553D6C
:1052E00091A17F3F4CCE5B3D189C7F3F6814623D8F
:1052F00078967F3F625A683DB1907F3F38A06E3DFF
:10530000C28A7F3FE9E5743DAB847F3F742B7B3DD0
:105310006D7E7F3F6CB8803D08787F3F0ADB833D20
:105320007B717F3F94FD863DC76A7F3F0A208A3D9F
:10533000EC637F3F6A428D3DE95C7F3FB464903D02
:10534000BF557F3FE786933D6D4E7F3F05A9963D54
:10535000F4467F3F0ACB993D543F7F3FF9EC9C3D9B
:105360008D377F3FCF0EA03D9D2F7F3F8C30A33DDB
:1053700087277F3F3052A63D491F7F3FBA73A93D23
:10538000E4167F3F2B95AC3D580E7F3F80B6AF3D76
:10539000A4057F3FBBD7B23DC9FC7E3FDAF8B53DDF
:1053A000C7F37E3FDD19B93D9DEA7E3FC33ABC3D60
:1053B0004CE17E3F8D5BBF3DD4D77E3F397CC23D03
:1053C00034CE7E3FC69CC53D6DC47E3F36BDC83DD4
:1053D0007FBA7E3F86DDCB3D69B07E3FB7FDCE3DD7
:1053E0002DA67E3FC81DD23DC99B7E3FB93DD53D10
:1053F0003D917E3F895DD83D8B867E3F377DDB3D8D
:10540000B17B7E3FC49CDE3DB0707E3F2EBCE13D53
:1054100088657E3F76DBE43D385A7E3F9AFAE73D69
:10542000C14E7E3F9A19EB3D23437E3F7638EE3DD9
:105430005E377E3F2E57F13D722B7E3FC075F43DA7
:105440005E1F7E3F2C94F73D24137E3F73B2FA3DDE
:10545000C2067E3F92D0FD3D38FA7D3F4577003E43
:1054600088ED7D3F2E06023EB1E07D3F0295033E72
:10547000B2D37D3FC223053E8CC67D3F6EB2063E51
:1054800040B97D3F0541083ECCAB7D3F86CF093E0C
:10549000309E7D3FF35D0B3E6E907D3F4AEC0C3EAF
:1054A00085827D3F8B7A0E3E74747D3FB708103E37
:1054B0003D667D3FCC96113EDE577D3FCA24133EAC
:1054C00059497D3FB2B2143EAC3A7D3F8340163E0F
:1054D000D82B7D3F3DCE173EDD1C7D3FE05B193E66
:1054E000BC0D7D3F6BE91A3E73FE7C3FDE761C3EB1
:1054F00003EF7C3F38041E3E6CDF7C3F7B911F3EF8
:10550000AECF7C3FA51E213EC9BF7C3FB6AB223E3D
:10551000BDAF7C3FAD38243E8A9F7C3F8CC5253E85
:10552000318F7C3F5152273EB07E7C3FFCDE283ECF
:10553000086E7C3F8D6B2A3E3A5D7C3F04F82B3E23
:10554000444C7C3F61842D3E283B7C3FA2102F3E83
:10555000E5297C3FC99C303E7A187C3FD428323EF6
:10556000E9067C3FC4B4333E31F57B3F9840353E7D
:1055700053E37B3F50CC363E4DD17B3FEC57383E1A
:1055800020BF7B3F6CE3393ECDAC7B3FCF6E3B3ED3
:10559000539A7B3F15FA3C3EB2877B3F3E853E3EA9
:1055A000EA747B3F4910403EFC617B3F379B413EA4
:1055B000E74E7B3F0726433EAB3B7B3FB9B0443EC3
:1055C00048287B3F4D3B463EBE147B3FC2C5473E0D
:1055D0000E017B3F1850493E37ED7A3F4FDA4A3E85
:1055E0003AD97A3F67644C3E16C57A3F60EE4D3E2D
:1055F000CBB07A3F38784F3E599C7A3FF101513E0B
:10560000C1877A3F898B523E02737A3F0115543E1F
:105610001C5E7A3F589E553E10497A3F8F27573E71
:10562000DD337A3FA4B0583E841E7A3F97395A3E04
:1056300004097A3F6AC25B3E5EF3793F1A4B5D3ED6
:1056400091DD793FA8D35E3E9DC7793F135C603EF4
:1056500083B1793F5CE4613E439B793F836C633E59
:10566000DC84793F86F4643E4E6E793F667C663E0C
:105670009A57793F2204683EC040793FBA8B693E11
:10568000BF29793F2F136B3E9812793F7F9A6C3E6A
:105690004AFB783FAB216E3ED6E3783FB2A86F3E1F
:1056A0003BCC783F942F713E7BB4783F51B6723E2D
:1056B000939C783FE83C743E8684783F5AC3753E9D
:1056C000526C783FA649773EF853783FCCCF783E6E
:1056D000773B783FCB557A3ED122783FA4DB7B3EA7
:1056E000040A783F56617D3E10F1773FE1E67E3E49
:1056F000F7D7773F2236803EB7BE773FC0F8803E6F
:1057000051A5773F4ABB813EC58B773FC07D823E26
:105710001372773F2240833E3A58773F7002843EAF
:105720003C3E773FAAC4843E1724773FCE86853E11
:10573000CC09773FDF48863E5BEF763FDA0A873E4B
:10574000C4D4763FC1CC873E07BA763F938E883E5D
:10575000249F763F5050893E1B84763FF8118A3E45
:10576000EC68763F8AD38A3E974D763F07958B3E0D
:105770001B32763F6E568C3E7A16763FC0178D3EB2
:10578000B3FA753FFCD88D3EC6DE753F229A8E3E39
:10579000B3C2753F325B8F3E7BA6753F2C1C903E9B
:1057A0001C8A753F10DD903E976D753FDD9D913EE3
:1057B000ED50753F945E923E1D34753F351F933E0C
:1057C0002717753FBFDF933E0BFA743F31A0943E1D
:1057D000C9DC743F8D60953E62BF743FD220963E17
:1057E000D5A1743F00E1963E2284743F17A1973EF5
:1057F0004966743F1661983E4B48743FFE20993EBF
:10580000272A743FCEE0993EDD0B743F86A09A3E76
:105810006EED733F27609B3ED9CE733FAF1F9C3E1A
:105820001FB0733F20DF9C3E3F91733F789E9D3EAB
:105830003972733FB85D9E3E0E53733FDF1C9F3E2F
:10584000BE33733FEEDB9F3E4714733FE59AA03EA5
:10585000ACF4723FC259A13EEBD4723F8718A23E0E
:1058600004B5723F33D7A23EF894723FC595A33E6C
:10587000C774723F3F54A43E7054723F9F12A53EBE
:10588000F433723FE5D0A53E5213723F128FA63E0D
:105890008CF2713F254DA73E9FD1713F1F0BA83E53
:1058A0008EB0713FFEC8A83E578F713FC486A93E97
:1058B000FB6D713F6F44AA3E7A4C713F0102AB3ED3
:1058C000D42A713F77BFAB3E0809713FD47CAC3E10
:1058D00017E7703F153AAD3E02C5703F3CF7AD3E4D
:1058E000C6A2703F49B4AE3E6680703F3A71AF3E8B
:1058F000E15D703F102EB03E373B703FCBEAB03ECB
:105900006718703F6BA7B13E73F56F3FEF63B23E10
:105910005AD26F3F5820B33E1BAF6F3FA5DCB33E5A
:10592000B88B6F3FD698B43E30686F3FEC54B53EAD
:1059300083446F3FE610B63EB0206F3FC3CCB63E07
:10594000BAFC6E3F8488B73E9ED86E3F2A44B83E6C
:105950005DB46E3FB2FFB83EF88F6E3F1EBBB93EDE
:105960006D6B6E3F6E76BA3EBE466E3FA031BB3E5B
:10597000EB216E3FB6ECBB3EF2FC6D3FAFA7BC3EE9
:10598000D5D76D3F8B62BD3E93B26D3F4A1DBE3E83
:105990002D8D6D3FEBD7BE3EA1676D3F6F92BF3E31
:1059A000F2416D3FD54CC03E1D1C6D3F1E07C13EF0
:1059B00024F66C3F48C1C13E07D06C3F557BC23EC8
:1059C000C5A96C3F4435C33E5E836C3F15EFC33EB3
:1059D000D45C6C3FC8A8C43E24366C3F5C62C53EB4
:1059E000500F6C3FD21BC63E58E86B3F29D5C63ED0
:1059F0003BC16B3F628EC73EFB996B3F7C47C83E05
:105A000095726B3F7700C93E0C4B6B3F53B9C93E53
:105A10005E236B3F1072CA3E8CFB6A3FAE2ACB3EC0
:105A200095D36A3F2CE3CB3E7BAB6A3F8B9BCC3E4E
:105A30003C836A3FCA53CD3ED95A6A3FEA0BCE3EF9
:105A400052326A3FEAC3CE3EA7096A3FCA7BCF3EC5
:105A5000D7E0693F8A33D03EE4B7693F2AEBD03EB6
:105A6000CC8E693FAAA2D13E9165693F095AD23EC8
:105A7000323C693F4811D33EAE12693F67C8D33EFE
:105A800007E9683F647FD43E3CBF683F4136D53E5E
:105A90004C95683FFDECD53E396B683F99A3D63EE7
:105AA0000341683F135AD73EA816683F6B10D83E93
:105AB0002AEC673FA3C6D83E87C1673FB97CD93E71
:105AC000C196673FAD32DA3ED86B673F80E8DA3E79
:105AD000CA40673F319EDB3E9915673FC153DC3EAC
