:020000040800F2
:10000000700600202902000899040008B7030008C0
:10001000BB030008DB0200087309000800000000B1
:10002000000000000000000000000000550600086D
:10003000DF0200080000000029050008450700084D
:10004000430200084302000843020008430200087C
:10005000430200084302000843020008430200086C
:10006000430200084302000843020008430200085C
:10007000430200084302000843020008430200084C
:10008000430200084302000843020008430200083C
:10009000430200084302000843020008430200082C
:1000A000430200084302000843020008430200081C
:1000B000430200084302000843020008430200080C
:1000C00043020008430200084302000843020008FC
:1000D00043020008B1070008430200084302000879
:1000E00043020008430200084302000843020008DC
:1000F00043020008430200084302000843020008CC
:1001000043020008430200084302000843020008BB
:1001100043020008430200084302000843020008AB
:10012000430200084302000843020008430200089B
:10013000430200084302000843020008430200088B
:10014000430200084302000843020008430200087B
:10015000430200084302000843020008430200086B
:10016000430200084302000843020008430200085B
:10017000430200084302000843020008430200084B
:10018000430200084302000800F002F800F03CF8C7
:100190000AA090E8000C82448344AAF10107DA45E2
:1001A00001D100F031F8AFF2090EBAE80F0013F0F8
:1001B000010F18BFFB1A43F001031847D4070000D2
:1001C000F4070000103A24BF78C878C1FAD8520763
:1001D00024BF30C830C144BF04680C6070470000C1
:1001E0000023002400250026103A28BF78C1FBD840
:1001F000520728BF30C148BF0B6070471FB500F0E1
:10020000C2FB1FBD10B510BD00F031F81146FFF75D
:10021000F5FF00F0B0FB00F04FF803B4FFF7F2FF7A
:1002200003BC00F053F80000094880470948004724
:10023000FEE7FEE7FEE7FEE7FEE7FEE7FEE7FEE796
:10024000FEE7FEE704480549054A064B70470000F3
:10025000490700088901000870000020700600208E
:10026000700200207002002070477047704775468A
:1002700000F028F8AE4605006946534620F0070016
:10028000854618B020B5FFF7DDFFBDE820404FF0F0
:1002900000064FF000074FF000084FF0000B21F070
:1002A0000701AC46ACE8C009ACE8C009ACE8C0093D
:1002B000ACE8C0098D4670470446AFF30080204685
:1002C000FFF7ABFF004870471000002001491820DD
:1002D000ABBEFEE726000200704700BFFEE7704796
:1002E000F0B50A4600210023002400BF3DE00125AF
:1002F00005FA01F3156805EA03049C4234D1056848
:100300004F000326BE40B543056015794E00B54049
:100310000668354305601579012D02D01579022D47
:1003200016D185684F000326BE40B54385605579D8
:100330004E00B540866835438560456801268E408D
:10034000B5434560456896798E40B6B23543456001
:10035000C5684F000326BE40B543C560D5794E0041
:10036000B540C6683543C560491C1029BFD3F0BDF0
:10037000F0B5002300244D07ED0E02FA05F3CE1070
:1003800000F1200555F826504E07F70E0F26BE4007
:10039000B543CF1000F1200646F82750CE1000F1EB
:1003A000200555F8265045EA0304CE1000F120053B
:1003B00045F82640F0BD00BFFEE700BFFEE70000A5
:1003C00000B587B00121102000F0C0F801210846D7
:1003D00000F0ACF8072209212D48FFF7C9FF0722DA
:1003E0000A212B48FFF7C4FF4FF40070059002204C
:1003F0008DF8180000208DF81A0003208DF81900E0
:1004000001208DF81B0005A92148FFF769FF4FF473
:100410008060059002208DF8180000208DF81A00E9
:1004200003208DF8190001208DF81B0005A918483C
:10043000FFF756FF4FF4E13001900020ADF81000B7
:100440000C20ADF80E000020ADF80C00ADF80A004D
:10045000ADF8080001A90F4800F018FA01210D4875
:1004600000F0B8F9012240F225510A4800F0E8F9FD
:1004700025208DF8000001208DF803008DF8010083
:100480008DF80200684600F009F807B000BD0000D2
:1004900000000240001001407047000070B50021CC
:1004A00000230F22C4781CB3174C246804F4E064C2
:1004B000C4F5E064C4F30721C1F10404E3B20A41C6
:1004C00044789C40E1B28478144021430C07210E0B
:1004D0000E4C05786155047804F01F050124AC40EA
:1004E00005786D11AD0005F1E025C5F8004109E082
:1004F000047804F01F050124AC40054D0678761100
:1005000045F8264070BD00000CED00E000E400E07E
:1005100080E100E002490143024A11607047000097
:100520000000FA050CED00E07047000029B1064A12
:1005300012680243044B1A6004E0034A12688243C3
:10054000014B1A60704700003038024029B1064A5A
:1005500012680243044B1A6004E0034A12688243A3
:10056000014B1A607047000044380240F0B500218A
:1005700000220024022500260223324F3F6807F0A4
:100580000C0121B1042905D0082937D105E02E4FEF
:10059000076036E02D4F076033E02A4F3F1F3F686A
:1005A000C7F38056274F3F1F3F6807F03F036EB1E8
:1005B000264FB7FBF3F7DFF88CC0ACF1040CDCF886
:1005C00000C0CCF3881C07FB0CF40CE01E4FB7FBFB
:1005D000F3F7DFF870C0ACF1040CDCF800C0CCF32A
:1005E000881C07FB0CF4174F3F1F3F68C7F30147F8
:1005F0007F1C7D00B4FBF5F7076002E0124F076037
:1006000000BF00BF0F4F3F6807F0F0010909104F0E
:100610007A5C0768D74047600A4F3F6807F4E051AB
:10062000890A0B4F7A5C4768D7408760054F3F685F
:1006300007F46041490B064F7A5C4768D740C760B2
:10064000F0BD0000083802400024F40040787D012D
:1006500000000020704700000CB5002001900090C1
:100660003448006840F480303249086000BF3148A7
:10067000006800F4003000900198401C0190009840
:1006800018B90198B0F5A04FF1D12A48006800F4DC
:10069000003010B10120009001E00020009000988F
:1006A000012846D123484030006840F0805021495D
:1006B000403108602048006840F440401E4908600E
:1006C0001C48083000681B4908310860084600686B
:1006D00040F4004008600846006840F4A0500860FC
:1006E0001648091F0860081F006840F08070091F45
:1006F000086000BF0F48006800F000700028F9D0C3
:1007000040F205700E4908600A480830006820F081
:1007100003000849083108600846006840F00200FC
:10072000086000BF03480830006800F00C0008288B
:10073000F8D10CBD00380240007000401954400749
:10074000003C02407047000010B51548006840F4B6
:100750007000134908601348006840F00100114917
:10076000086000200F49083108600E4800680E49F3
:1007700008400C4908600D48091D0860081F006802
:1007800020F48020091F0860002006490C31086011
:10079000FFF762FF4FF0006001498039086010BD2B
:1007A00088ED00E000380240FFFFF6FE1030002424
:1007B00010B540F22551064800F018F838B1044849
:1007C00000F0CEF8C4B22146014800F0CEF810BDCA
:1007D0000010014021B1828942F40052828104E07C
:1007E00082894DF6FF731A408281704770B50246C8
:1007F000002400230025002040F66A16B14200D1F3
:1008000000BFC1F3421501F01F03012606FA03F3EE
:10081000012D02D19689334006E0022D02D1168ABD
:10082000334001E0968A33400C12012606FA04F4A4
:100830001688344013B10CB1012000E0002070BDD7
:10084000F0B50346002400260025002040F66A1774
:10085000B94200D100BF1846C1F3421401F01F068F
:10086000012707FA06F5012C01D10C3004E0022C17
:1008700001D1103000E014301AB107682F4307602F
:1008800002E00768AF430760F0BD00002DE9FF47B5
:1008900005460E460024A14600BFA046B08900B11F
:1008A00000BF2C8A24F44054F08804432C82AC8985
:1008B00041F20C608443B088318908437189084350
:1008C0000443AC81AC8A24F44074B0890443AC8204
:1008D0006846FFF74BFE2048854202D01F488542FC
:1008E00002D1DDF80C9001E0DDF80890A88900F451
:1008F000004040B109EBC90000EB09103168490024
:10090000B0FBF1F707E009EBC90000EB0910316813
:100910008900B0FBF1F76420B7FBF0F00401200977
:10092000642101FB1078A88900F4004040B1322016
:1009300000EBC800B0FBF1F000F00700044308E052
:10094000322000EB08106421B0FBF1F000F00F0042
:1009500004432C81BDE8FF870010014000140140D2
:1009600001468888C0F308007047C1F308028280FE
:10097000704700BFFEE74FF4A060FFF7CBFDFFF725
:100980001FFD00BFFEE74FF04070E1EE100A704718
:10099000B00900080000002010000000C401000899
:1009A000C00900081000002060060000E0010008F7
:1009B0000000000001020304010203040607080905
:040000050800018965
:00000001FF
